:100000000C94EA040C9445090C941E090C94F7080E
:100010000C9412050C9412050C9412050C94120504
:100020000C9412050C9412050C9412050C941205F4
:100030000C9412050C9412050C9412050C941205E4
:100040000C9412050C9412050C94AD080C94120536
:100050000C945A070C9434070C9412050C94120556
:100060000C9412050C9412050C946C090C94120556
:100070000C9412050C9412050C941205036EDB36D9
:100080003D9A9999993DABAAAA2A3E000000803F6B
:10009000084AD73B3BCE016E84BCBFFDC12F3D6CEF
:1000A00074319ABD56833DDA3D00C77F11BED9E455
:1000B000BB4C3E916BAAAABE000000803F072C7A81
:1000C000A5BA6CC590DA3B9365FC8BBC53F810FD68
:1000D0003C5692834DBD879D3AB63DCBC9BF5BBEB2
:1000E00073DA0FC93F0001B202FFFF019004092338
:1000F000A135016A0206000160080000000000004E
:100100000000006004400000000162020000006086
:100110000400400000037B034CCD6C03AB03365658
:100120007600680402CB47A202180400058BC101C7
:100130000C0400000000037F060CC92C979797035E
:100140008903264666006C0220000240040000007D
:100150000002440400000000024804000000000205
:100160004C0400000000025004000000000254048F
:100170000000000002580400000000025C040000BF
:10018000000002BC040000000001EC04000040007C
:10019000037F060CC92C9797970402030D355D0465
:1001A0000904872D353D00A30100000000010786EA
:1001B00001FE074105F120283038077E013007464F
:1001C000019A074704F1283038076C04F1283038C9
:1001D0000216020001FB00003E000B003600010089
:1001E000020003000000650054FFEF0000FA8000E9
:1001F0000B1282000100020000000000000000005D
:10020000000000000000280000FFFF4581FFFFFA0A
:100210007200000000000003E80000000100017F00
:10022000FFFFFE8001001B00000000000000000036
:100230000000000000003E03304000000002CAE35E
:10024000093E800000200000000000000040000087
:10025000006000000041FF000000000B2A000016B3
:100260005500002182FD872650FD800000001F0000
:1002700000000580000000000000010000000200F6
:100280000000030000400000000000046F00026551
:100290003200005EC04000000000000000000000CE
:1002A0000000000000FB8C6F5DFD5D08D9007C73D1
:1002B0003B006C12CC3200139D3200D0D6320008C5
:1002C00000400001F4FFE68079020000000000D049
:1002D000D600002710FB00000040000000000000D6
:1002E000000000000000000001000000000000010C
:1002F00000010000000000FA36FFBC308E0005FB54
:10030000F0FFD95BC8FFD09ABE000010A9FFF41E11
:10031000B200CEBBF70000000100000004000200A4
:10032000020200000CFFC280000001800000CF80AC
:100330000040000000000000010000000000000676
:100340000000000014000000000000000000000099
:10035000000000000000000000000000000000009D
:10036000000000000000000000000000000000008D
:10037000000000000000000000033F68B679352847
:10038000BCC67ED16C80000000400000000000B2BE
:100390006A00000000000000000000000000003FB4
:1003A000F00000003000000000000000000000002D
:1003B000000000000000000000000000000000003D
:1003C00000000000000000254D002F706D000005AA
:1003D000AE000C02D00000000000650054FFEF00EA
:1003E0000000000000000001000044000000000CBC
:1003F0000000000100000000000065000000540043
:1004000000FFEF00000000000000000000000000FE
:10041000000000000040000000000000000000009C
:10042000000000000040000000000000000000008C
:1004300000000000000000000100000002000000B9
:1004400000000000000000000000000000000000AC
:10045000000000000000000000000000000000009C
:100460000000000000001B00000000000000000071
:10047000000000000000000000000000000000007C
:10048000000000000000000000000000000000006C
:100490000040000000001B00000000000000000001
:1004A000000000000000000000000000000000004C
:1004B000000000000000000000000000000000003C
:1004C000000000000000000000000000000000002C
:1004D0000000000000D8DCBAA2F1DEB2B8B4A881F6
:1004E00091F74A907F916AF3F9DBA8F9B0BAA0803E
:1004F000F2CE81F3C2F1C1F2C3F3CCA2B280F1C655
:10050000D880BAA7DFDFDFF2A7C3CBC5B6F087A2DA
:10051000942448703C95406834589B78A2F18392AB
:100520002D557DD8B1B4B8A1D09180F270F370F29E
:100530007C80A8F101B09887D943D886C988BAA130
:10054000F20EB89780F1A9DFDFDFAADFDFDFF2AAC2
:10055000C5CDC7A90CC92C97979797F1A9892646AD
:1005600066B0B4BA80ACDEF2CAF1B28C02A9B69819
:1005700000890E161EB8A9B4992C547CB08AA8968E
:10058000365676F1B9AFB4B083C0B8A89711B18F21
:1005900098B9AFF0240844106418F1A329557DAF31
:1005A00083B593AFF0002850F1A3869F61A6DADEF1
:1005B000DFD9FAA38696DB31A6D9F8DFBAA68FC2B7
:1005C000C5C7B28CC1B8A2DFDFDFA3DFDFDFD8D8B9
:1005D000F1B8A8B286B4980D355DB8AA98B0872D49
:1005E000353DB2B6BAAF8C96198F9FA70E161EB4C2
:1005F0009AB8AA872C547CB9A3DEDFDFA3B180F2BE
:10060000C4CDC9F1B8A9B499830D355D89B9A32DBD
:10061000557DB593A30E161EA92C547CB8B4B0F129
:100620009783A81184A50998A383F0DA24084410BD
:100630006418D8F1A529557DA58595021A2E3A563C
:100640005A4048F9F3A3D9F8F09883240844106479
:10065000189782A8F111F098A2240844106418DABF
:10066000F3DED883A59401D9A302F1A2C3C5C7D8EC
:10067000F18492A24DDA2AD84869D92AD86855DA85
:1006800032D85071D932D8705DDA3AD85879D93A1F
:10069000D87893A34DDA2AD84869D92AD86855DA88
:1006A00032D85071D932D8705DDA3AD85879D93AFF
:1006B000D878A88A9AF02850789EF38818F19F1D60
:1006C00098A8D908D8C89F129EF315A8DA1210D896
:1006D000F1AFC8978734B5B994A421F3D922D8F2E1
:1006E0002DF3D92AD8F235F3D932D881A4606061CC
:1006F000D961D86C6869D969D8747071D971D8B169
:10070000A384193D5DA3831A3E5E931030811011BE
:10071000B8B0AF8F94F2DA3ED8B49AA88729DAF845
:10072000D8879A35DAF8D8879A3DDAF8D8B1B9A4DB
:100730009885022E56A581000C14A397B08AF12D3E
:10074000D928D84DD948D86DD968D8B1840DDA0EDA
:10075000D8A32983DA2C0ED8A3844983DA2C4C0E33
:10076000D8B8B0A88A9AF520AADADFD8A840AAD0CB
:10077000DADED8A860AADAD0DFD8F19786A8319B54
:10078000069907AB9728889BF00C201440B8B0B4AA
:10079000A88C9CF0042851791D301438B282ABD05B
:1007A000982C505078789BF11AB0F08A9CA8295167
:1007B000798B2951798A2470598B2058718A446920
:1007C000388B3940688A6448318B304960A588206D
:1007D0000971584468113964493019F1AC002C543E
:1007E0007CF08CA804285078F1889726A85998ACFA
:1007F0008C02264666F0899CA829517924705944B8
:100800006938644831A98809205970AB11384069AA
:10081000A8193148608CA83C415C207C00F1879885
:100820001986A86E767EA999882D557D9EB9A38AD2
:10083000228A6E8A568A5E9FB183062646660E2EEF
:100840004E6E9DB8AD002C547CF2B18CB499B9A316
:100850002D557D8191AC38AD3AB58391AC2DD92819
:10086000D84DD948D86DD968D88C9DAE29D904AE59
:10087000D851D904AED879D904D881F39DAD008D73
:10088000AE1981ADD901D8F2AEDA26D88E9129837E
:10089000A7D9ADADADADF32AD8D8F1B0AC89913EB2
:1008A0005E76F3AC2E2EF1B18C5A9CAC2C28282805
:1008B0009CAC3018A8988128343C9724A728343C55
:1008C0009C24F2B089AC912C4C6C8A9B2DD9D8D841
:1008D00051D9D8D879D9D8D8F19E88A331DAD8D8C7
:1008E000912DD928D84DD948D86DD968D8B18393DE
:1008F000353D8025DAD8D88569DAD8D8B49381A374
:1009000028343CF3AB8BF8A391B609B4D9ABDEFA2B
:10091000B0879CB9A3DDF1A3A3A3A395F1A3A3A3DF
:100920009DF1A3A3A3A3F2A3B49080F2A3A3A3A3D6
:10093000A3A3A3A3A3A3B2A3A3A3A3A3A3B087B575
:1009400099F1A3A3A398F1A3A3A3A397A3A3A3A3FC
:10095000F39BA3A3DCB9A7F1262626D8D8FF000075
:100960002100240027002A00000022002500280082
:100970002B00020202020202020204040404040424
:100980000404030303030303030301010101010141
:100990000101010204081020408001020408102017
:1009A000408001020408102040808040201008048C
:1009B000020100000001020000000000000004032A
:1009C0000807000000000000000000000000000018
:1009D0000000C21611241FBECFEFD0E1DEBFCDBF95
:1009E00011E0A0E0B1E0ECECF9E302C005900D925B
:1009F000A433B107D9F723E0A4E3B1E001C01D920D
:100A0000A232B207E1F714E0CAEED4E004C02197A5
:100A1000FE010E943617C93ED107C9F70E94F710A0
:100A20000C94E41C0C940000CF92DF92EF92FF92A2
:100A30000F931F93CF93DF936C017A018B01C0E07A
:100A4000D0E0CE15DF0589F0D8016D918D01D6017A
:100A5000ED91FC910190F081E02DC6010995892B63
:100A600011F47E0102C02196ECCFC701DF91CF9136
:100A70001F910F91FF90EF90DF90CF900895FC01B0
:100A8000918D828D981761F0828DDF01A80FB11DC5
:100A90005D968C91928D9F5F9F73928F90E00895E9
:100AA0008FEF9FEF0895FC01918D828D981731F0A3
:100AB000828DE80FF11D858D90E008958FEF9FEFF7
:100AC0000895FC01918D228D892F90E0805C9F4FCD
:100AD000821B91098F739927089582E592E00E9405
:100AE000610521E0892B09F420E0822F0895FC01A3
:100AF000848DDF01A80FB11DA35ABF4F2C91848DA7
:100B000090E001968F739927848FA689B7892C93DB
:100B1000A089B1898C9180648C93938D848D981376
:100B200006C00288F389E02D80818F7D808308953F
:100B3000EF92FF920F931F93CF93DF93EC0181E02D
:100B4000888F9B8D8C8D981305C0E889F9898081E9
:100B500085FD24C0F62E0B8D10E00F5F1F4F0F7325
:100B60001127E02E8C8DE8120CC00FB607FCFACFCF
:100B7000E889F989808185FFF5CFCE010E9477054C
:100B8000F1CF8B8DFE01E80FF11DE35AFF4FF0828C
:100B90000B8FEA89FB898081806207C0EE89FF891B
:100BA0006083E889F98980818064808381E090E0B6
:100BB000DF91CF911F910F91FF90EF900895CF9308
:100BC000DF93EC01888D8823C9F0EA89FB89808155
:100BD00085FD05C0A889B9898C9186FD0FC00FB627
:100BE00007FCF5CF808185FFF2CFA889B9898C9168
:100BF00085FFEDCFCE010E947705E7CFDF91CF9142
:100C000008953FB7F8948091030290910402A09157
:100C10000502B091060226B5A89B05C02F3F19F02A
:100C20000196A11DB11D3FBFBA2FA92F982F88276C
:100C3000820F911DA11DB11DBC01CD0142E0660FC7
:100C4000771F881F991F4A95D1F70895089585ED5C
:100C50008093BC008091BC0084FDFCCF10922D02DB
:100C600008954091D901262F30E0240F311D213203
:100C70003105DCF420912D022430C9F4FC0180E020
:100C800090E0861758F43091D9012191DC01A954E4
:100C9000BE4FA30FB11D2C930196F3CF8091D901C4
:100CA000680F6093D90180E0089581E0089582E0A3
:100CB00008950895E091350180913401E81730F4EA
:100CC000F0E0E956FE4F808190E008958FEF9FEFAE
:100CD00008959091350180913401981750F4E92FCF
:100CE000F0E0E956FE4F208130E09F5F90933501A0
:100CF00002C02FEF3FEFC90108958091340190E0C9
:100D000020913501821B91090895CF92DF92EF92D5
:100D1000FF920F931F93CF93DF937C01262F972F82
:100D20008A0180912E02882391F0C62FD72F6E0161
:100D3000C40ED51ECC15DD0571F06991D701ED917A
:100D4000FC910190F081E02DC7010995F3CF642F4C
:100D5000822F0E943106C801DF91CF911F910F9120
:100D6000FF90EF90DF90CF900895CF93DF931F9285
:100D7000CDB7DEB7698320912E022223D1F02091D6
:100D80005102203240F021E030E0FC013383228325
:100D900080E090E015C080912F02E82FF0E0E05D48
:100DA000FD4F998190838F5F80932F028093510232
:100DB00005C061E0CE0101960E94310681E090E01D
:100DC0000F90DF91CF91089581E08093960108956F
:100DD00082E592E00E946105181619065CF5809183
:100DE000460190914701892BA9F482E592E00E9487
:100DF0003F059093400180933F018C36910519F097
:100E00008237910589F481E090E0909347018093C7
:100E10004601089582E592E00E943F0580933E01DD
:100E2000109247011092460181E090E090934201B8
:100E30008093410108950E946D0581110DC080E0ED
:100E400090E0892B71F080E090E0892B51F00E94B6
:100E50000000811104C008950E94E806F0CF0C94B0
:100E6000000008950E94921C1F920F920FB60F92DD
:100E700011242F933F934F935F936F937F938F939F
:100E80009F93AF93BF93EF93FF9382E592E00E940D
:100E90007705FF91EF91BF91AF919F918F917F91D6
:100EA0006F915F914F913F912F910F900FBE0F90D7
:100EB0001F9018951F920F920FB60F9211242F9327
:100EC0008F939F93EF93FF93E0916202F0916302FF
:100ED0008081E0916802F091690282FD12C09081E8
:100EE00080916B028F5F8F7320916C02821751F09B
:100EF000E0916B02F0E0EE5AFD4F958F80936B020C
:100F000001C08081FF91EF919F918F912F910F9060
:100F10000FBE0F901F90189590E0FC01EE54F64F15
:100F20003491FC01EE56F64F2491FC01EE58F64F39
:100F3000E491EE2309F43BC0332339F1333091F0CF
:100F400038F43130A9F0323001F584B58F7D12C00C
:100F5000373091F03830A1F03430B9F4809180000E
:100F60008F7D03C0809180008F77809380000DC0BB
:100F700084B58F7784BD09C08091B0008F7703C09E
:100F80008091B0008F7D8093B000F0E0EE0FFF1FE6
:100F9000E859F64FA591B4918FB7F894EC9161118F
:100FA00003C020952E2301C02E2B2C938FBF0895B4
:100FB000CF93DF9390E0FC01EE56F64F2491FC01B5
:100FC000EE58F64F8491882361F190E0880F991FC5
:100FD000FC01E25AF64FC591D491FC01E859F64F55
:100FE000A591B491611109C09FB7F89488812095AB
:100FF00082238883EC912E230BC0623061F49FB76B
:10100000F8943881822F809583238883EC912E2B4E
:101010002C939FBF06C08FB7F894E8812E2B2883AE
:101020008FBFDF91CF9108951F93CF93DF93182F38
:10103000EB0161E00E94D807209711F460E004C042
:10104000CF3FD10539F461E0812FDF91CF911F911E
:101050000C948C07E12FF0E0EE54F64FE491E3306E
:10106000F9F048F4E130B9F0E230A1F584B58062DE
:1010700084BDC8BD34C0E730E9F0E83019F1E43090
:1010800049F580918000806280938000D0938B002E
:10109000C0938A0024C084B5806884BDC7BD1FC0CA
:1010A00080918000806880938000D0938900C093F5
:1010B000880015C08091B00080688093B000C09314
:1010C000B3000DC08091B00080628093B000C093E7
:1010D000B40005C0C038D1050CF0B5CFAFCFDF915B
:1010E000CF911F9108958F929F92AF92BF92CF920E
:1010F000DF92EF92FF926B017C010E9401064B018F
:101100005C01C114D104E104F104F1F00E94010674
:10111000DC01CB0188199909AA09BB09883E9340D3
:10112000A105B10570F321E0C21AD108E108F10868
:1011300088EE880E83E0981EA11CB11CC114D10456
:10114000E104F10419F7DDCFFF90EF90DF90CF902D
:10115000BF90AF909F908F9008951F920F920FB6FF
:101160000F9211242F933F938F939F93AF93BF932D
:101170008091FF0190910002A0910102B0910202C2
:101180003091FE0123E0230F2D3720F40196A11D9D
:10119000B11D05C026E8230F0296A11DB11D2093A5
:1011A000FE018093FF0190930002A0930102B0938F
:1011B00002028091030290910402A0910502B09175
:1011C00006020196A11DB11D8093030290930402B3
:1011D000A0930502B0930602BF91AF919F918F91AA
:1011E0003F912F910F900FBE0F901F9018951F9257
:1011F0000F920FB60F9211242F933F934F935F934B
:101200006F937F938F939F93AF93BF93EF93FF93CE
:10121000E0910401F09105010995FF91EF91BF91D3
:10122000AF919F918F917F916F915F914F913F917E
:101230002F910F900FBE0F901F9018951F920F9235
:101240000FB60F9211242F933F934F935F936F9399
:101250007F938F939F93AF93BF93EF93FF93E0910F
:101260000201F09103010995FF91EF91BF91AF91B8
:101270009F918F917F916F915F914F913F912F91AE
:101280000F900FBE0F901F9018951F920F920FB6E0
:101290000F9211242F933F934F935F936F937F93FC
:1012A0008F939F93AF93BF93EF93FF93E0910001D0
:1012B000F09101010995FF91EF91BF91AF919F913D
:1012C0008F917F916F915F914F913F912F910F90EF
:1012D0000FBE0F901F9018951F920F920FB60F928E
:1012E00011242F933F934F935F936F937F938F932B
:1012F0009F93AF93BF93EF93FF938091B900887F43
:10130000803609F49CC068F5883209F45BC090F41B
:10131000803109F454C038F4882309F4F6C08830C9
:1013200009F44DC0F6C0883109F44CC0803209F48C
:101330005DC0EFC0803409F468C048F4803309F41C
:1013400055C0883309F0E5C080932B02D8C08035A2
:1013500009F44FC0883509F45DC0883409F0D9C05C
:10136000D6C0883909F4C7C0A8F4883709F467C023
:1013700038F4883609F463C0803709F460C0C9C006
:10138000883809F4B8C0803909F45FC0803809F0A2
:10139000C0C05BC0803B09F486C038F4803A09F4D1
:1013A00066C0883A09F47FC0B4C0803C09F4A7C085
:1013B000883C09F4A4C0883B09F48AC0AAC0809183
:1013C000080210C090912A0280912902981770F5A6
:1013D000E0912A0281E08E0F80932A02F0E0E75F1D
:1013E000FD4F80818093BB0085EC86C080932B02EB
:1013F0008EC0E0912A0281E08E0F80932A028091B4
:10140000BB00F0E0E75FFD4F808390912A0280915E
:1014100029026EC0E0912A0281E08E0F80932A0299
:101420008091BB00F0E0E75FFD4F808380912C024C
:1014300081116DC081E08093070284EA61C083E07E
:1014400080932D021092FD01CFCF8091FD0180325B
:1014500008F051C0E091FD0181E08E0F8093FD0105
:101460008091BB00F0E0E352FE4F8083BDCF85EC5E
:101470008093BC0010922D028091FD01803230F4E7
:10148000E091FD01F0E0E352FE4F10826091FD011A
:1014900070E0E091DB01F091DC018DED91E00995C8
:1014A0001092FD0136C084E080932D021092DA0183
:1014B0001092D901E091D701F091D801099580915E
:1014C000D901811105C081E08093D9011092B70143
:1014D000E091DA0181E08E0F8093DA01F0E0E954C7
:1014E000FE4F80818093BB009091DA018091D901F9
:1014F000981708F479CF85E88093BC000AC085EC82
:101500008093BC0010922D0204C010922B020E9406
:101510002706FF91EF91BF91AF919F918F917F919E
:101520006F915F914F913F912F910F900FBE0F9050
:101530001F901895EF92FF920F931F93CF93DF9315
:1015400000D0CDB7DEB7142F91E090932E02809398
:10155000500210922F02109251028FEE92E02983D6
:101560003A830E94B5062981022FE22E3A81F32E9A
:101570008E2D801B811740F4F70161917F018FEE62
:1015800092E00E94B506F4CF0E94CB0E91E081114B
:1015900090E0892F0F900F90DF91CF911F910F91C5
:1015A000FF90EF900895CF93DF931F92CDB7DEB7F2
:1015B00049839E012F5F3F4F41E00E949A0A0F909E
:1015C000DF91CF9108952F923F924F925F926F9249
:1015D0007F928F929F92AF92BF92CF92DF92EF92C3
:1015E000FF920F931F93CF93DF93CDB7DEB727976B
:1015F0000FB6F894DEBF0FBECDBF8F836B83742F01
:1016000059018FB7F894C090FF01D0900002E0908C
:101610000102F09002028FBF3F80330C812C212CFD
:101620009924939450E05D834C832801612C712CA4
:10163000871608F0A7C090922E025F815093500247
:1016400010922F02109251026B818FEE92E07E83F6
:101650000E94B5060E94CB0E90922E025F8150939D
:10166000500210922F02109251027E8180912D0221
:101670008111FCCF2C813D8128193109213231059E
:1016800014F020E230E0213208F020E290922D02A6
:1016900090922C028FEF80932B0210922A02820FDD
:1016A00080932902909208028091080283298093F6
:1016B000080280910702813071F410920702809134
:1016C00008028093BB008091BC0083FDF8CF95ECAD
:1016D0009093BC0003C0E5EEE093BC0080912D0226
:1016E0008130E1F380912A02821710F420912A02BE
:1016F000A9E0B2E0E7E9F1E08E2F47E951E0841B71
:10170000821718F48D918193F7CF109235012093B1
:1017100034019091340180913501981749F10115F8
:10172000110591F4A501420D511D27FC5A955A83CC
:1017300049838FEE92E07E830E946906E981FA81F7
:10174000808323947E81E5CF2FB7F8948091FF01A9
:1017500090910002A0910102B09102022FBF8C195A
:101760009D09AE09BF0984159505A605B705D0F2F8
:101770007E830E94CB0E7E81872F713208F080E23B
:10178000880E56CF0115110509F12FB7F8948091F5
:10179000FF0190910002A0910102B09102022FBFBF
:1017A0008C199D09AE09BF0920E030E08017910730
:1017B000A207B30758F0272F30E0822D022C000C2F
:1017C000990B8217930714F422242A94822D2796CA
:1017D0000FB6F894DEBF0FBECDBFDF91CF911F9142
:1017E0000F91FF90EF90DF90CF90BF90AF909F90C0
:1017F0008F907F906F905F904F903F902F900895C3
:10180000BF92CF92DF92EF92FF920F931F93CF93ED
:10181000DF931F92CDB7DEB7F82EE62EC42EB22E80
:10182000D02E08EE13E09E012F5F3F4F41E00E9453
:10183000E30A882321F1EC2DF0E0EB19F109319650
:1018400021E030E002C0220F331FBA94E2F72150AA
:1018500031090E2E01C0220F0A94EAF78D2D01C026
:10186000880FEA95EAF7422F40959981492328236A
:10187000422B49836E2D8F2D0E94D30A01C080E038
:101880000F90DF91CF911F910F91FF90EF90DF901C
:10189000CF90BF900895CF92DF92EF92FF920F9377
:1018A0001F93CF93DF931F92CDB7DEB7F82EE62EAE
:1018B000D42EC22E08EE13E09E012F5F3F4F41E071
:1018C0000E94E30A9981CC2041F041E050E001C040
:1018D000440FDA94EAF7492B09C021E030E0A9016E
:1018E00001C0440FDA94EAF74095492349836E2DED
:1018F0008F2D0E94D30A0F90DF91CF911F910F91EE
:10190000FF90EF90DF90CF9008954F925F926F928B
:101910007F928F929F92AF92BF92CF92DF92EF927F
:10192000FF92CF93DF93CDB7DEB764970FB6F894ED
:10193000DEBF0FBECDBF80913801882309F4D4C12A
:101940008091960181110CC02091940130919501F4
:1019500080913601909137012817390708F4C4C1E6
:10196000109296010E94280F809339010E943B102B
:101970009C0190939501809394019091390194FD7D
:1019800003C021153440B1F464960FB6F894DEBF5D
:101990000FBECDBFDF91CF91FF90EF90DF90CF9042
:1019A000BF90AF909F908F907F906F905F904F907F
:1019B0000C94600F91FF98C1E0909401F090950114
:1019C0006091360170913701E616F70638F40E94EF
:1019D0003B109093950180939401EECF84E591E0C4
:1019E0000E942D108091360190913701E81AF90A72
:1019F000F0929501E092940160905801712C762C40
:101A0000662480915901680E711C80905C01912CB4
:101A1000982C882480915D01880E911CA090600113
:101A2000B12CBA2CAA2480916101A80EB11C60913E
:101A3000540170E0762F662780915501680F711D63
:101A4000072E000C880B990B0E94E01820E030E074
:101A500040E858E30E94CF196B017C016093FB02C0
:101A60007093FC028093FD029093FE02B301770C09
:101A7000880B990B0E94E01820E030E040E858E322
:101A80000E94CF1969837A838B839C836093FF02C2
:101A9000709300038093010390930203B401990CA7
:101AA000880B990B0E94E01820E030E040E858E3F2
:101AB0000E94CF196D837E838F8398876093030381
:101AC000709304038093050390930603B501BB0C48
:101AD000880B990B0E94E01820E030E040E858E3C2
:101AE0000E94CF192B013C016093070370930803F8
:101AF0008093090390930A03A7019601C701B601D9
:101B00000E943D1769877A878B879C87A70196017A
:101B10000E94CF196D877E878F87988B29813A81A4
:101B20004B815C81CA01B9010E943D174B015C01E8
:101B300029813A814B815C810E94CF199B01AC01C4
:101B40006D857E858F8598890E943D1720E030E065
:101B500040E85FE30E943C17698B7A8B8B8B9C8BF0
:101B60002D813E814F815885C501B4010E94CF1956
:101B70006B017C01A301920169857A858B859C8527
:101B80000E94CF199B01AC01C701B6010E943C170E
:101B900029893A894B895C890E94D7176B017C019E
:101BA000609348017093490180934A0190934B01DF
:101BB000A3019201C501B4010E94CF194B015C0140
:101BC0002D813E814F81588569857A858B859C85DD
:101BD0000E94CF199B01AC01C501B4010E943D17C1
:101BE0000E94A917DC01CB01B05880934C0190935F
:101BF0004D01A0934E01B0934F01A3019201C30187
:101C0000B2010E943D17A30192010E94CF199B01CE
:101C1000AC016D857E858F8598890E943D1720E0F7
:101C200030E040E85FE30E943C174B015C012D81EE
:101C30003E814F815885CA01B9010E943D17A30119
:101C400092010E94CF192B013C0129813A814B81DD
:101C50005C8169857A858B859C850E94CF199B0163
:101C6000AC01C301B2010E943C17A50194010E947E
:101C7000D717609350017093510180935201909354
:101C8000530120E030E044E353E4C701B6010E9471
:101C9000CF192BED3FE049E450E40E9436186093E1
:101CA0003A0170933B0180933C0190933D01609118
:101CB000080181E06827609308018DE064960FB603
:101CC000F894DEBF0FBECDBFDF91CF91FF90EF90B4
:101CD000DF90CF90BF90AF909F908F907F906F904C
:101CE0005F904F900C948C0764960FB6F894DEBF0B
:101CF0000FBECDBFDF91CF91FF90EF90DF90CF90DF
:101D0000BF90AF909F908F907F906F905F904F901B
:101D1000089562E370E083E00E94140862E370E0DB
:101D200084E00E94140881E090E008956FEF70E075
:101D300083E00E9414086FEF70E084E00E941408B2
:101D400061E083E00E948C0761E084E00E948C07E0
:101D500081E090E00895009769F0FC010190002077
:101D6000E9F73197AF01481B590BBC0182E592E0BE
:101D70000C94140580E090E00895CF93DF930E94C7
:101D8000AB0EEC0181E391E00E94AB0E8C0F9D1F26
:101D9000DF91CF910895209151029091500221320C
:101DA00008F04AC080912D028111FCCF32E03093BF
:101DB0002D0231E030932C023FEF30932B02109232
:101DC0002A0220932902A0E3B2E049E052E0FA019E
:101DD0003E2F341B321718F43D913193F9CF1092F6
:101DE000080220910802990F922B9093080290917B
:101DF0000702913061F410920702909108029093CB
:101E0000BB009091BC0093FDF8CF95EC01C095EE1E
:101E10009093BC0090912D029230E1F390912B02AF
:101E20009F3F79F080912B02803241F080912B020C
:101E3000803331F084E005C081E003C082E001C05E
:101E400083E010922F021092510210922E020895F8
:101E50000F931F93CF93DF93CBE0D3E008EE13E013
:101E60002CE033E041E06AE388810E94E30A898143
:101E7000DF91CF911F910F910895CF93DF93EA01E6
:101E800091E090932E028093500210922F021092B4
:101E900051028FEE92E00E94B50669818FEE92E0CA
:101EA0000E94B5066A818FEE92E00E94B5060E94FC
:101EB000CB0E91E0811190E0892FDF91CF910895B1
:101EC00021E042E06AE680910B030C944B0C482F12
:101ED0006EE680910B030C94D30A2F923F924F929F
:101EE0005F926F927F928F929F92AF92BF92CF92AA
:101EF000DF92EF92FF920F931F93CF93DF933C01FA
:101F00005B01342EC22F202E4F716DE680910B03A2
:101F10000E94D30A8C2F0E94670F80E190E00E94FC
:101F20009B1A6C01002331F080E190E00E949B1A23
:101F3000582E492EE12CF12CEA14FB0408F06DC058
:101F4000C7014096A816B90618F4DA2DDE1901C0AB
:101F5000D0E18D2F90E020E031E02C1B31092817D3
:101F6000390714F4DC2FD195F301EE0DFF1D22206B
:101F700059F0952DA52DB42D8A2F891B8D1730F47E
:101F800084918D933196F8CF5E2E4F2E252D342DD2
:101F90004D2F6FE680910B030E949A0A8D2E912C93
:101FA000C114D10429F1432D4F716DE680910B03CB
:101FB0000E94D30A8C2F0E94670F08EE13E096014F
:101FC0004D2F6FE680910B030E94E30AA401B60136
:101FD000852D942D0E94971C892B51F0C6010E94DB
:101FE000301B222021F1852D942D0E94301B1FC013
:101FF000E80CF91CCD0FEA14FB0408F09DCFC111C9
:1020000001C03394432D4F716DE680910B030E9404
:10201000D30A8C2F0E94670F8FCFC6010E94301BFE
:10202000222039F0852D942D0E94301B02C080E0C3
:1020300001C081E0DF91CF911F910F91FF90EF9050
:10204000DF90CF90BF90AF909F908F907F906F90D8
:102050005F904F903F902F9008950F931F93462FBE
:1020600008EE13E09C0164E780910B030E94E30AF1
:102070001F910F9108950F931F93CF93DF93CBE0A0
:10208000D3E008EE13E02CE033E042E062E7888121
:102090000E94E30A898190E0982F88272A81822B69
:1020A000DF91CF911F910F910895EF92FF920F93BF
:1020B0001F93CF93DF931F92CDB7DEB77A018901CB
:1020C0009E012F5F3F4F41E00E94E30A882339F0D1
:1020D00029812E7730E035952795F70120830F90E1
:1020E000DF91CF911F910F91FF90EF9008958F9204
:1020F0009F92AF92BF920F931F93CF93DF93CDB771
:10210000DEB7A1970FB6F894DEBF0FBECDBF19A200
:10211000423008F44AE08E010F5D1F4F842E912C4F
:10212000A12CB12CA50194010E941417E62FB9012E
:10213000CA0101501109EA3014F4E05D01C0E95C04
:10214000D801EC93232B242B252B61F7C8010E9487
:10215000AB0EA1960FB6F894DEBF0FBECDBFDF91D8
:10216000CF911F910F91BF90AF909F908F90089546
:10217000CF92DF92EF92FF92CF93DF936B017C01BE
:10218000E0915202F09153020190F081E02D6DE256
:1021900082E592E00995EC0166277727CB016C195F
:1021A0007D098E099F094AE00E9477108C0F9D1FC0
:1021B000DF91CF91FF90EF90DF90CF900895CF9374
:1021C000DF93BC01990F880B990B97FF03C00E9406
:1021D000B81003C04AE00E947710EC0181E391E05F
:1021E0000E94AB0E8C0F9D1FDF91CF910895CF936E
:1021F000DF93CDB7DEB7C859D1090FB6F894DEBF6B
:102200000FBECDBF789484B5826084BD84B58160F3
:1022100084BD85B5826085BD85B5816085BD8091B1
:102220006E00816080936E00109281008091810029
:102230008260809381008091810081608093810021
:10224000809180008160809380008091B1008460E3
:102250008093B1008091B00081608093B000809144
:102260007A00846080937A0080917A008260809303
:102270007A0080917A00816080937A0080917A0060
:10228000806880937A001092C10061E083E00E9430
:10229000D80761E084E00E94D80761E080E00E94F6
:1022A000D8076FEF70E083E00E94140861E081E0DE
:1022B0000E94D8076FEF70E084E00E941408E0915C
:1022C0006202F091630282E08083E0915E02F0910D
:1022D0005F021082E0916002F091610280E18083F0
:1022E00010926A02E0916602F091670286E08083B4
:1022F000E0916402F0916502808180618083E091C9
:102300006402F0916502808188608083E0916402BC
:10231000F0916502808180688083E0916402F09191
:10232000650280818F7D8083109235011092340187
:1023300010922F021092510210922D0281E0809390
:102340002C021092070261E081E10E948C0761E09B
:1023500080E10E948C078091B9008E7F8093B90044
:102360008091B9008D7F8093B90088E48093B80094
:1023700085E48093BC008CE08093B80001E023E00A
:1023800042E06BE680910B030E94000C00E022E02B
:1023900044E06BE180910B030E94000C22E044E0DA
:1023A0006CE180910B030E94000C20E046E06BE69C
:1023B00080910B030E944B0C60E08AE00E94D807DA
:1023C00021E047E06BE680910B030E944B0C6EE12D
:1023D00070E080E090E00E94730820E046E06BE649
:1023E00080910B030E944B0C40E76DE680910B033C
:1023F0000E94D30A86E00E94670F08EE13E02CE0EB
:1024000033E041E06FE680910B030E94E30A40E075
:102410006DE680910B030E94D30A9E012F5F3F4F10
:1024200041E060E080910B030E94E30A89818170A2
:1024300080930C0328EE33E04CE053E060E08091A1
:102440000B030E94551080900C0328EE33E04CE003
:1024500053E061E080910B030E94551090900C03B3
:1024600028EE33E04CE053E062E080910B030E94E1
:102470005510A0900C034FE765E280910B030E947A
:10248000D30A20E045E06AE680910B030E944B0CE2
:1024900048E665E280910B030E94D30A21E041E007
:1024A0006AE680910B030E944B0C64E170E080E0CF
:1024B00090E00E94730801E020E040E069E877E0E6
:1024C00085ED91E00E946D0F882309F4F9C288E040
:1024D00090E00E949B1AB82E192FE12CF12CF701E5
:1024E000EB5EFE4F4491F701EA5EFE4F24916701D7
:1024F00083E0C80ED11CF701E95EFE4FE491EE23A4
:10250000D1F1EE2EF12CE330D8F0B7018B2D912FC5
:10251000C856DF4F2883C859D040C956DF4F48837B
:10252000C759D0400E94C81BB82E192FC956DF4F7B
:102530004881C759D040C856DF4F2881C859D0407C
:10254000AB2DB12F80E090E08E159F0548F4F60189
:10255000E80FF91FEB5EFE4FE491ED930196F4CF87
:1025600000E0B7018B2D912F0E946D0FEC0CFD1C2C
:10257000811117C010C094E0E90EF11CF601EB5E6A
:10258000FE4FE491E13039F442E368E380910B03BC
:102590000E94D30A06C08B2D912F0E94301B12E09F
:1025A00090C220ECE216F10408F499CF8B2D912F04
:1025B0000E94301B03E023E042E06BE680910B03B6
:1025C0000E94000C42E168E380910B030E94D30A51
:1025D00044E069E180910B030E94D30A01E023E00B
:1025E00045E06AE180910B030E94000C03E023E0C8
:1025F00042E06AE180910B030E94000C22E044E07B
:102600006BE180910B030E94000C43E060E7809136
:102610000B030E94D30A40E061E780910B030E9404
:10262000D30A20E040E060E080910B030E944B0C55
:10263000082D26E046E060E080910B030E94000C2C
:10264000092D26E046E061E080910B030E94000C1A
:102650000A2D26E046E062E080910B030E94000C08
:1026600080910B03CB56DF4F19821882C559D04099
:10267000AE014B565F4F63E10E943D0F80910B030B
:10268000CD56DF4F19821882C359D040AE014D5646
:102690005F4F65E10E943D0F80910B03CF56DF4FE6
:1026A00019821882C159D040AE014F565F4F67E181
:1026B0000E943D0FE12CF12CF701EA51FF4FE4910C
:1026C000A1E8B0E0AC0FBD1FAE0DB11DEC9381E0F1
:1026D0008E0D9FEFE91AF90A23E02E1568F7CD5702
:1026E000DF4F6881C358D04070E09B012E5F3F4FA1
:1026F00090E02817390704F700E0CE57DF4F288114
:10270000C258D040CF57DF4F4881C158D04081E8F0
:1027100090E08C0F9D1F03960E946D0F80E0F701E3
:10272000EA51FF4FE491A1E8B0E0AC0FBD1FA80F44
:10273000B11DEC938F5F9FEFE91AF90A843078F3AB
:10274000CD57DF4F6881C358D04070E0AB014E5F7A
:102750005F4F282F30E0421753070CF700E0CE57A9
:10276000DF4F2881C258D040CF57DF4F4881C15832
:10277000D04081E890E08C0F9D1F03960E946D0F62
:102780000E94600F0E943B10682FCE0101960E94AC
:102790002D1042E06FE180910B030E94D30A4CE9B7
:1027A00061E280910B030E94D30A40E560E28091D0
:1027B0000B030E94D30A40E062E280910B030E9467
:1027C000D30A0E94600F21E046E06AE680910B0385
:1027D0000E944B0C21E047E06AE680910B030E94C7
:1027E0004B0C21E043E06AE680910B030E944B0C06
:1027F00080E0F701EA51FF4FE491A1E8B0E0AC0FAF
:10280000BD1FA80FB11DEC938F5F2FEFE21AF20AE4
:10281000843078F3CD57DF4F6881C358D04070E0E3
:10282000AB014E5F5F4F282F30E0421753070CF784
:1028300000E0CE57DF4F2881C258D040CF57DF4F3E
:102840004881C158D04081E890E08C0F9D1F0396CD
:102850000E946D0F80E0F701EA51FF4FE491A1E87B
:10286000B0E0AC0FBD1FA80FB11DEC938F5F9FEFC1
:10287000E91AF90A843078F3CD57DF4F6881C358DD
:10288000D04070E0AB014E5F5F4F282F30E0421721
:1028900053070CF700E0CE57DF4F2881C258D040D5
:1028A000CF57DF4F4881C158D04081E890E08C0F6E
:1028B0009D1F03960E946D0F80E0F701EA51FF4FC4
:1028C000E491A1E8B0E0AC0FBD1FA80FB11DEC93DF
:1028D0008F5F2FEFE21AF20A843078F3CD57DF4F83
:1028E0006881C358D04070E0AB014E5F5F4F282F26
:1028F00030E0421753070CF700E0CE57DF4F288136
:10290000C258D040CF57DF4F4881C158D04081E8EE
:1029100090E08C0F9D1F03960E946D0F0E943B104C
:102920008330E0F3682FCE0101960E942D100E94A3
:10293000280F80E0F701EA51FF4FE491A1E8B0E0F1
:10294000AC0FBD1FA80FB11DEC938F5F9FEFE91A6D
:10295000F90A843078F3CD57DF4F3880C358D04020
:10296000832C912CA4014E5F5F4F282F30E042173B
:10297000530704F7CE57DF4FB880C258D040CF5727
:10298000DF4F2880C158D040422D4F716DE68091B5
:102990000B030E94D30A8B2D0E94670FC12CD12CF0
:1029A000612C7724739421E8422E512C4C0E5D1E2D
:1029B00023E0420E511CC814D90498F5C601409674
:1029C0008816990618F4A32CAC1802C080E1A82E32
:1029D0008A2D90E093012B1931092817390714F437
:1029E000AB2CA19492012C0D3D1D08EE13E04A2D55
:1029F0006FE680910B030E94E30ACA0CD11CBA0C4B
:102A0000C814D904C0F6B11001C02394422D4F71EF
:102A10006DE680910B030E94D30A8B2D0E94670FF5
:102A2000CACF0E943B108330E0F3682FCE0101969D
:102A30000E942D100E94280FF701EA51FF4F80E0FD
:102A40009491A1E8B0E0AC0FBD1FA80FB11D9C93FD
:102A50008F5F843010F43196F3CFCD57DF4F68810C
:102A6000C358D04070E0AB014E5F5F4F282F30E07D
:102A70004217530784F700E0CE57DF4F2881C25832
:102A8000D040CF57DF4F4881C158D04081E890E017
:102A90008C0F9D1F03960E946D0F20E047E06AE6B1
:102AA00080910B030E944B0C8AE290E090930E03FE
:102AB00080930D030E94600F0E94280F10E001C058
:102AC00011E0109343010CED26E046E060E08091B8
:102AD0000B030E94000C0CE426E046E061E08091CC
:102AE0000B030E94000C0BEA26E046E062E08091B6
:102AF0000B030E94000C80910B032CEF36E03A830D
:102B00002983AE014F5F5F4F6AE00E943D0F1111B4
:102B100022C021E047E06AE680910B030E944B0C43
:102B200084EE96E09093010180930001809169000A
:102B3000836080936900E89A0E94280F809339018E
:102B400081E08093380180910D0390910E03909362
:102B500037018093360161E08DE00E94D80768E874
:102B600073E180E090E00E94730808EC10E080912F
:102B7000410190914201892B09F4FFC080913F01EE
:102B8000909140018C36910511F16CF482369105DB
:102B900099F08636910509F0ECC060E080E00E9473
:102BA0008C0760E00EC08237910509F476C0833748
:102BB000910509F4D7C0DDC061E080E00E948C0778
:102BC00061E081E00E948C070E94890ECDC061E027
:102BD00080E00E948C0760E081E00E948C071093E7
:102BE00007010093060168EC70E083E00E9414087E
:102BF00068EC70E084E00E94140860913A017091E2
:102C00003B0180913C0190913D010E94A8182091C8
:102C10003E0130E0621B730B6C348FEF78071CF4BD
:102C2000719561957109709345016093440180919C
:102C3000440190914501853B9105D4F0885691401F
:102C4000909345018093440113C060913A017091C3
:102C50003B0180913C0190913D010E94A81822E027
:102C6000E20EF11C6E157F050CF47CC00E94850CF1
:102C700060913A0170913B0180913C0190913D013E
:102C8000E0904401F09045010E94A818970122505D
:102C900031092617370754F7D8CF60E080E00E944B
:102CA0008C0761E081E00E948C071093070100937C
:102CB000060168EC70E083E00E94140868EC70E0A4
:102CC00084E00E94140860913A0170913B01809168
:102CD0003C0190913D010E94A81820913E0130E0F6
:102CE000620F731F6C348FEF78071CF47195619538
:102CF0007109709345016093440180914401909162
:102D00004501853B9105CCF0885691409093450153
:102D10008093440112C060913A0170913B0180910F
:102D20003C0190913D010E94A81822E0E20EF11CA6
:102D30006E157F05BCF00E94850C60913A01709180
:102D40003B0180913C0190913D01E0904401F09065
:102D500045010E94A818970122503109261737070C
:102D600054F7D9CF0E94960E60E082E592E00E946F
:102D7000980510924201109241010E94850C0E9418
:102D80001B07F5CEE2E5F2E01382128288EE93E0B3
:102D9000A0E0B0E084839583A683B78325E131E08A
:102DA0003183208325EC30E03587248724EC30E024
:102DB0003787268720EC30E0318B208B21EC30E008
:102DC000338B228B22EC30E0358B248B26EC30E0E9
:102DD000378B268B118E128E138E148EEFEEF2E04F
:102DE0001382128284839583A683B78385E291E060
:102DF0009183808388E680930B03EBEFF2E080E021
:102E000090E0A0E8BFE380839183A283B383148220
:102E100015821682178210861186128613861486F2
:102E20001586168617860895A1E21A2EAA1BBB1BCB
:102E3000FD010DC0AA1FBB1FEE1FFF1FA217B30786
:102E4000E407F50720F0A21BB30BE40BF50B661F9C
:102E5000771F881F991F1A9469F760957095809560
:102E600090959B01AC01BD01CF010895EE0FFF1FAE
:102E70000590F491E02D09945058BB27AA270E9491
:102E800054170C948D190E947F1938F00E948619EE
:102E900020F039F49F3F19F426F40C9441190EF4F4
:102EA000E095E7FB0C943B19E92F0E949E1958F31B
:102EB000BA17620773078407950720F079F4A6F51F
:102EC0000C94C0190EF4E0950B2EBA2FA02D0B0117
:102ED000B90190010C01CA01A0011124FF27591B5F
:102EE00099F0593F50F4503E68F11A16F040A22F65
:102EF000232F342F4427585FF3CF469537952795D6
:102F0000A795F0405395C9F77EF41F16BA0B620BD4
:102F1000730B840BBAF09150A1F0FF0FBB1F661F1B
:102F2000771F881FC2F70EC0BA0F621F731F841F5E
:102F300048F4879577956795B795F7959E3F08F084
:102F4000B0CF9395880F08F09927EE0F9795879546
:102F500008959F939F77EEE389379E0728F4ECE767
:102F6000F0E00E946B190CC00E941B199058A2EA55
:102F70002AED3FE049EC5FE30E9454170E948D194F
:102F80000F9007FC905808950E947F1960F080E828
:102F900091E009F49EEF0E94861928F040E851E084
:102FA00071F45EEF0CC00C9441190C94C019E92F18
:102FB000E0780E949E1940F3092E052AB1F32617E6
:102FC00037074807590738F00E2E07F8E02569F053
:102FD000E025E0640AC0EF6307F8009407FADB011C
:102FE000B9019D01DC01CA01AD01EF930E944D18AA
:102FF0000E948D190E9407185F91552339F02BED1F
:103000003FE049E450FD49EC0C943D170895DF93EF
:10301000DD27B92FBF7740E85FE31616170648078C
:103020005B0718F4D92F0E94C7199F938F937F9342
:103030006F930E94821AE0E9F0E00E9444190E9416
:103040008D192F913F914F915F910E94E219DD23DD
:1030500051F09058A2EA2AED3FE049EC5FE3D078C6
:103060005D270E945417DF910C948D190E944A1815
:103070000C948D190E94861958F00E947F1940F017
:1030800029F45F3F29F00C943B1951110C94C1199C
:103090000C9441190E949E1968F39923B1F35523AA
:1030A00091F3951B550BBB27AA276217730784075B
:1030B00038F09F5F5F4F220F331F441FAA1FA9F3F1
:1030C00035D00E2E3AF0E0E832D091505040E695DF
:1030D000001CCAF72BD0FE2F29D0660F771F881F40
:1030E000BB1F261737074807AB07B0E809F0BB0B33
:1030F000802DBF01FF2793585F4F3AF09E3F510547
:1031000078F00C943B190C94C1195F3FE4F3983E9E
:10311000D4F3869577956795B795F7959F5FC9F72F
:10312000880F911D9695879597F90895E1E0660FB0
:10313000771F881FBB1F621773078407BA0720F029
:10314000621B730B840BBA0BEE1F88F7E095089592
:103150000E94AF186894B1110C94C11908950E948F
:10316000A61988F09F5798F0B92F9927B751B0F05A
:10317000E1F0660F771F881F991F1AF0BA95C9F7FB
:1031800014C0B13091F00E94C019B1E008950C94C0
:10319000C019672F782F8827B85F39F0B93FCCF373
:1031A000869577956795B395D9F73EF49095809578
:1031B000709561957F4F8F4F9F4F0895E89409C098
:1031C00097FB3EF490958095709561957F4F8F4F5A
:1031D0009F4F9923A9F0F92F96E9BB279395F69570
:1031E000879577956795B795F111F8CFFAF4BB0FEE
:1031F00011F460FF1BC06F5F7F4F8F4F9F4F16C052
:10320000882311F096E911C0772321F09EE8872FDB
:10321000762F05C0662371F096E8862F70E060E097
:103220002AF09A95660F771F881FDAF7880F969510
:10323000879597F90895DF93CF931F930F938B0191
:10324000EC01EDEBF0E00E9444190E948D19980109
:10325000AE018B01EC0160E070E080E89FE30E942A
:103260003C170E94421A9801AE010F911F91CF9115
:10327000DF910C94E21997F99F6780E870E060E0B5
:1032800008959FEF80EC0895DF93CF931F930F93E2
:10329000FF92EF92DF927B018C01689406C0DA2ED8
:1032A000EF010E94E219FE01E894A5912591359164
:1032B00045915591A6F3EF010E945417FE01970125
:1032C000A801DA9469F7DF90EF90FF900F911F91BA
:1032D000CF91DF9108959F938F937F936F93FF9387
:1032E000EF939B01AC010E94CF19EF91FF910E94D7
:1032F00044192F913F914F915F910C94CF19002465
:103300000A941616170618060906089500240A944A
:1033100012161306140605060895092E0394000CD0
:1033200011F4882352F0BB0F40F4BF2B11F460FF5F
:1033300004C06F5F7F4F8F4F9F4F089557FD905888
:10334000440F551F59F05F3F71F04795880F97FB69
:10335000991F61F09F3F79F0879508951216130623
:103360001406551FF2CF4695F1DF08C01616170652
:103370001806991FF1CF8695710561050894089587
:10338000E894BB2766277727CB0197F908959B011F
:10339000AC0160E070E080E89FE30C9436180E9476
:1033A000E2190C948D190E947F1938F00E94861939
:1033B00020F0952311F00C943B190C944119112421
:1033C0000C94C1190E949E1970F3959FC1F3950F3B
:1033D00050E0551F629FF001729FBB27F00DB11D99
:1033E000639FAA27F00DB11DAA1F649F6627B00D29
:1033F000A11D661F829F2227B00DA11D621F739F12
:10340000B00DA11D621F839FA00D611D221F749F1F
:103410003327A00D611D231F849F600D211D822F66
:10342000762F6A2F11249F5750409AF0F1F088238D
:103430004AF0EE0FFF1FBB1F661F771F881F9150BA
:103440005040A9F79E3F510580F00C943B190C9415
:10345000C1195F3FE4F3983ED4F38695779567955D
:10346000B795F795E7959F5FC1F7FE2B880F911DE4
:103470009695879597F9089519F416F40C944119C7
:103480000C94861A0E94A619B8F39923C9F3B6F3CF
:103490009F57550B87FF0E94941A0024A0E640EA2C
:1034A000900180585695979528F4805C660F771F99
:1034B000881F20F026173707480730F4621B730B6C
:1034C000840B202931294A2BA6951794079420258F
:1034D00031254A2758F7660F771F881F20F02617D7
:1034E0003707480730F4620B730B840B200D311D36
:1034F000411DA09581F7B901842F9158880F9695A9
:10350000879508959B01AC010C94CF199F3F31F032
:10351000915020F4879577956795B795880F911D01
:103520009695879597F9089591505040660F771FAB
:10353000881FD2F70895CF93DF938230910510F45E
:1035400082E090E0E0912003F091210320E030E060
:10355000C0E0D0E0309711F1408151814817590700
:10356000C0F04817590761F482819381209719F0C0
:103570009B838A832BC0909321038093200326C0D2
:103580002115310519F04217530718F49A01BE01AD
:10359000DF01EF010280F381E02DDCCF2115310541
:1035A00009F1281B390B2430310590F412968D91C6
:1035B0009C9113976115710521F0FB019383828320
:1035C00004C09093210380932003FD01329644C0F0
:1035D000FD01E20FF31F81939193225031092D9346
:1035E0003C933AC020911E0330911F03232B41F4DA
:1035F00020910B0130910C0130931F0320931E0387
:103600002091090130910A012115310541F42DB7AE
:103610003EB740910D0150910E01241B350BE091F6
:103620001E03F0911F03E217F307A0F42E1B3F0BBC
:103630002817390778F0AC014E5F5F4F2417350724
:1036400048F04E0F5F1F50931F0340931E0381935A
:10365000919302C0E0E0F0E0CF01DF91CF910895B7
:103660000F931F93CF93DF93009709F48CC0FC0155
:1036700032971382128200912003109121030115C9
:10368000110581F420813181820F931F20911E0347
:1036900030911F032817390779F5F0931F03E09342
:1036A0001E0371C0D80140E050E0AE17BF0750F4D0
:1036B00012962D913C911397AD012115310509F119
:1036C000D901F3CF9D01DA013383228360817181B7
:1036D000860F971F8217930769F4EC0128813981BF
:1036E000260F371F2E5F3F4F318320838A819B81B6
:1036F00093838283452B29F4F0932103E0932003E5
:1037000042C01396FC93EE931297ED0149915991A3
:103710009E01240F351FE217F30771F48081918118
:10372000840F951F029611969C938E9382819381AC
:1037300013969C938E931297E0E0F0E0D8011296D6
:103740008D919C911397009719F0F8018C01F6CF99
:103750008D919C9198012E5F3F4F820F931F209176
:103760001E0330911F032817390769F4309729F495
:10377000109221031092200302C013821282109330
:103780001F0300931E03DF91CF911F910F910895A6
:10379000A0E0B0E0EEECFBE10C94B11CEC01009772
:1037A00021F4CB010E949B1AB8C0FC01E60FF71F61
:1037B0009C0122503109E217F30708F4ACC0D9018B
:1037C0000D911C91119706171707B0F005301105E0
:1037D00008F49FC0C80104978617970708F499C09A
:1037E00002501109061B170B019311936D937C93E3
:1037F000CF010E94301B8DC05B01A01AB10A4C01A1
:10380000800E911EA0912003B091210340E050E072
:10381000E12CF12C109709F44AC0A815B905D1F58F
:103820006D907C901197630182E0C80ED11CCA1480
:10383000DB0480F1A3014A195B096A0182E0C80E2A
:10384000D11C1296BC9012971396AC91B5E0CB1692
:10385000D10440F0B282A38351834083D9016D9398
:103860007C930AC00E5F1F4FC301800F911FF901A7
:1038700091838083EB2DFA2FE114F10431F0D7010D
:103880001396FC93EE93129744C0F0932103E093B8
:1038900020033FC08D919C9111974817590708F458
:1038A000AC017D0112960D90BC91A02DB3CF8091FB
:1038B0001E0390911F0388159905E1F446175707D9
:1038C000C8F48091090190910A01009741F48DB7E5
:1038D0009EB740910D0150910E01841B950BE81786
:1038E000F907C8F4F0931F03E0931E03F9017183F5
:1038F00060830FC0CB010E949B1A7C01009759F096
:10390000A801BE010E94A41CCE010E94301BC70169
:1039100004C0CE0102C080E090E0CDB7DEB7EEE09B
:103920000C94CD1C81E090E0F8940C94E41CFB0115
:10393000DC0104C08D910190801921F44150504068
:10394000C8F7881B990B0895FB01DC0102C00190A8
:103950000D9241505040D8F708952F923F924F92C8
:103960005F926F927F928F929F92AF92BF92CF920F
:10397000DF92EF92FF920F931F93CF93DF93CDB718
:10398000DEB7CA1BDB0B0FB6F894DEBF0FBECDBF90
:1039900009942A88398848885F846E847D848C8461
:1039A0009B84AA84B984C884DF80EE80FD800C816A
:1039B0001B81AA81B981CE0FD11D0FB6F894DEBF4D
:0C39C0000FBECDBFED010895F894FFCFBD
:1039CC00260626062606FF0001000022038000E8DA
:1039DC0003000000009805140561053F055305DF41
:1039EC000500000000B50685067D0669065A0659D5
:0439FC00060D0A00AA
:00000001FF
