:100000000C94EA040C9436090C940F090C94E8083B
:100010000C9412050C9412050C9412050C94120504
:100020000C9412050C9412050C9412050C941205F4
:100030000C9412050C9412050C9412050C941205E4
:100040000C9412050C9412050C949E080C94120545
:100050000C944B070C9425070C9412050C94120574
:100060000C9412050C9412050C945D090C94120565
:100070000C9412050C9412050C941205036EDB36D9
:100080003D9A9999993DABAAAA2A3E000000803F6B
:10009000084AD73B3BCE016E84BCBFFDC12F3D6CEF
:1000A00074319ABD56833DDA3D00C77F11BED9E455
:1000B000BB4C3E916BAAAABE000000803F072C7A81
:1000C000A5BA6CC590DA3B9365FC8BBC53F810FD68
:1000D0003C5692834DBD879D3AB63DCBC9BF5BBEB2
:1000E00073DA0FC93F0001B202FFFF019004092338
:1000F000A135016A0206000160080000000000004E
:100100000000006004400000000162020000006086
:100110000400400000037B034CCD6C03AB03365658
:100120007600680402CB47A202180400058BC101C7
:100130000C0400000000037F060CC92C979797035E
:100140008903264666006C0220000240040000007D
:100150000002440400000000024804000000000205
:100160004C0400000000025004000000000254048F
:100170000000000002580400000000025C040000BF
:10018000000002BC040000000001EC04000040007C
:10019000037F060CC92C9797970402030D355D0465
:1001A0000904872D353D00A30100000000010786EA
:1001B00001FE074105F120283038077E013007464F
:1001C000019A074704F1283038076C04F1283038C9
:1001D0000216020001FB00003E000B003600010089
:1001E000020003000000650054FFEF0000FA8000E9
:1001F0000B1282000100020000000000000000005D
:10020000000000000000280000FFFF4581FFFFFA0A
:100210007200000000000003E80000000100017F00
:10022000FFFFFE8001001B00000000000000000036
:100230000000000000003E03304000000002CAE35E
:10024000093E800000200000000000000040000087
:10025000006000000041FF000000000B2A000016B3
:100260005500002182FD872650FD800000001F0000
:1002700000000580000000000000010000000200F6
:100280000000030000400000000000046F00026551
:100290003200005EC04000000000000000000000CE
:1002A0000000000000FB8C6F5DFD5D08D9007C73D1
:1002B0003B006C12CC3200139D3200D0D6320008C5
:1002C00000400001F4FFE68079020000000000D049
:1002D000D600002710FB00000040000000000000D6
:1002E000000000000000000001000000000000010C
:1002F00000010000000000FA36FFBC308E0005FB54
:10030000F0FFD95BC8FFD09ABE000010A9FFF41E11
:10031000B200CEBBF70000000100000004000200A4
:10032000020200000CFFC280000001800000CF80AC
:100330000040000000000000010000000000000676
:100340000000000014000000000000000000000099
:10035000000000000000000000000000000000009D
:10036000000000000000000000000000000000008D
:10037000000000000000000000033F68B679352847
:10038000BCC67ED16C80000000400000000000B2BE
:100390006A00000000000000000000000000003FB4
:1003A000F00000003000000000000000000000002D
:1003B000000000000000000000000000000000003D
:1003C00000000000000000254D002F706D000005AA
:1003D000AE000C02D00000000000650054FFEF00EA
:1003E0000000000000000001000044000000000CBC
:1003F0000000000100000000000065000000540043
:1004000000FFEF00000000000000000000000000FE
:10041000000000000040000000000000000000009C
:10042000000000000040000000000000000000008C
:1004300000000000000000000100000002000000B9
:1004400000000000000000000000000000000000AC
:10045000000000000000000000000000000000009C
:100460000000000000001B00000000000000000071
:10047000000000000000000000000000000000007C
:10048000000000000000000000000000000000006C
:100490000040000000001B00000000000000000001
:1004A000000000000000000000000000000000004C
:1004B000000000000000000000000000000000003C
:1004C000000000000000000000000000000000002C
:1004D0000000000000D8DCBAA2F1DEB2B8B4A881F6
:1004E00091F74A907F916AF3F9DBA8F9B0BAA0803E
:1004F000F2CE81F3C2F1C1F2C3F3CCA2B280F1C655
:10050000D880BAA7DFDFDFF2A7C3CBC5B6F087A2DA
:10051000942448703C95406834589B78A2F18392AB
:100520002D557DD8B1B4B8A1D09180F270F370F29E
:100530007C80A8F101B09887D943D886C988BAA130
:10054000F20EB89780F1A9DFDFDFAADFDFDFF2AAC2
:10055000C5CDC7A90CC92C97979797F1A9892646AD
:1005600066B0B4BA80ACDEF2CAF1B28C02A9B69819
:1005700000890E161EB8A9B4992C547CB08AA8968E
:10058000365676F1B9AFB4B083C0B8A89711B18F21
:1005900098B9AFF0240844106418F1A329557DAF31
:1005A00083B593AFF0002850F1A3869F61A6DADEF1
:1005B000DFD9FAA38696DB31A6D9F8DFBAA68FC2B7
:1005C000C5C7B28CC1B8A2DFDFDFA3DFDFDFD8D8B9
:1005D000F1B8A8B286B4980D355DB8AA98B0872D49
:1005E000353DB2B6BAAF8C96198F9FA70E161EB4C2
:1005F0009AB8AA872C547CB9A3DEDFDFA3B180F2BE
:10060000C4CDC9F1B8A9B499830D355D89B9A32DBD
:10061000557DB593A30E161EA92C547CB8B4B0F129
:100620009783A81184A50998A383F0DA24084410BD
:100630006418D8F1A529557DA58595021A2E3A563C
:100640005A4048F9F3A3D9F8F09883240844106479
:10065000189782A8F111F098A2240844106418DABF
:10066000F3DED883A59401D9A302F1A2C3C5C7D8EC
:10067000F18492A24DDA2AD84869D92AD86855DA85
:1006800032D85071D932D8705DDA3AD85879D93A1F
:10069000D87893A34DDA2AD84869D92AD86855DA88
:1006A00032D85071D932D8705DDA3AD85879D93AFF
:1006B000D878A88A9AF02850789EF38818F19F1D60
:1006C00098A8D908D8C89F129EF315A8DA1210D896
:1006D000F1AFC8978734B5B994A421F3D922D8F2E1
:1006E0002DF3D92AD8F235F3D932D881A4606061CC
:1006F000D961D86C6869D969D8747071D971D8B169
:10070000A384193D5DA3831A3E5E931030811011BE
:10071000B8B0AF8F94F2DA3ED8B49AA88729DAF845
:10072000D8879A35DAF8D8879A3DDAF8D8B1B9A4DB
:100730009885022E56A581000C14A397B08AF12D3E
:10074000D928D84DD948D86DD968D8B1840DDA0EDA
:10075000D8A32983DA2C0ED8A3844983DA2C4C0E33
:10076000D8B8B0A88A9AF520AADADFD8A840AAD0CB
:10077000DADED8A860AADAD0DFD8F19786A8319B54
:10078000069907AB9728889BF00C201440B8B0B4AA
:10079000A88C9CF0042851791D301438B282ABD05B
:1007A000982C505078789BF11AB0F08A9CA8295167
:1007B000798B2951798A2470598B2058718A446920
:1007C000388B3940688A6448318B304960A588206D
:1007D0000971584468113964493019F1AC002C543E
:1007E0007CF08CA804285078F1889726A85998ACFA
:1007F0008C02264666F0899CA829517924705944B8
:100800006938644831A98809205970AB11384069AA
:10081000A8193148608CA83C415C207C00F1879885
:100820001986A86E767EA999882D557D9EB9A38AD2
:10083000228A6E8A568A5E9FB183062646660E2EEF
:100840004E6E9DB8AD002C547CF2B18CB499B9A316
:100850002D557D8191AC38AD3AB58391AC2DD92819
:10086000D84DD948D86DD968D88C9DAE29D904AE59
:10087000D851D904AED879D904D881F39DAD008D73
:10088000AE1981ADD901D8F2AEDA26D88E9129837E
:10089000A7D9ADADADADF32AD8D8F1B0AC89913EB2
:1008A0005E76F3AC2E2EF1B18C5A9CAC2C28282805
:1008B0009CAC3018A8988128343C9724A728343C55
:1008C0009C24F2B089AC912C4C6C8A9B2DD9D8D841
:1008D00051D9D8D879D9D8D8F19E88A331DAD8D8C7
:1008E000912DD928D84DD948D86DD968D8B18393DE
:1008F000353D8025DAD8D88569DAD8D8B49381A374
:1009000028343CF3AB8BF8A391B609B4D9ABDEFA2B
:10091000B0879CB9A3DDF1A3A3A3A395F1A3A3A3DF
:100920009DF1A3A3A3A3F2A3B49080F2A3A3A3A3D6
:10093000A3A3A3A3A3A3B2A3A3A3A3A3A3B087B575
:1009400099F1A3A3A398F1A3A3A3A397A3A3A3A3FC
:10095000F39BA3A3DCB9A7F1262626D8D8FF000075
:100960002100240027002A00000022002500280082
:100970002B00020202020202020204040404040424
:100980000404030303030303030301010101010141
:100990000101010204081020408001020408102017
:1009A000408001020408102040808040201008048C
:1009B000020100000001020000000000000004032A
:1009C0000807000000000000000000000000000018
:1009D0000000671611241FBECFEFD0E1DEBFCDBFF0
:1009E00011E0A0E0B1E0E6E1F9E302C005900D926C
:1009F000A433B107D9F723E0A4E3B1E001C01D920D
:100A0000A132B207E1F714E0CAEED4E004C02197A6
:100A1000FE010E94DB16C93ED107C9F70E94E60E0F
:100A20000C94891C0C940000CF92DF92EF92FF92FD
:100A30000F931F93CF93DF936C017A018B01C0E07A
:100A4000D0E0CE15DF0589F0D8016D918D01D6017A
:100A5000ED91FC910190F081E02DC6010995892B63
:100A600011F47E0102C02196ECCFC701DF91CF9136
:100A70001F910F91FF90EF90DF90CF900895FC01B0
:100A8000918D828D981761F0828DDF01A80FB11DC5
:100A90005D968C91928D9F5F9F73928F90E00895E9
:100AA0008FEF9FEF0895FC01918D828D981731F0A3
:100AB000828DE80FF11D858D90E008958FEF9FEFF7
:100AC0000895FC01918D228D892F90E0805C9F4FCD
:100AD000821B91098F739927089581E592E00E9406
:100AE000610521E0892B09F420E0822F0895FC01A3
:100AF000848DDF01A80FB11DA35ABF4F2C91848DA7
:100B000090E001968F739927848FA689B7892C93DB
:100B1000A089B1898C9180648C93938D848D981376
:100B200006C00288F389E02D80818F7D808308953F
:100B3000EF92FF920F931F93CF93DF93EC0181E02D
:100B4000888F9B8D8C8D981305C0E889F9898081E9
:100B500085FD24C0F62E0B8D10E00F5F1F4F0F7325
:100B60001127E02E8C8DE8120CC00FB607FCFACFCF
:100B7000E889F989808185FFF5CFCE010E9477054C
:100B8000F1CF8B8DFE01E80FF11DE35AFF4FF0828C
:100B90000B8FEA89FB898081806207C0EE89FF891B
:100BA0006083E889F98980818064808381E090E0B6
:100BB000DF91CF911F910F91FF90EF900895CF9308
:100BC000DF93EC01888D8823C9F0EA89FB89808155
:100BD00085FD05C0A889B9898C9186FD0FC00FB627
:100BE00007FCF5CF808185FFF2CFA889B9898C9168
:100BF00085FFEDCFCE010E947705E7CFDF91CF9142
:100C0000089581E592E00E94610518161906B4F472
:100C100081E592E00E943F0590933A01809339016B
:100C20008C36910519F08237910541F481E592E007
:100C30000E943F05909337018093360181E090E058
:100C400090933C0180933B0108950E946D058111B2
:100C50000DC080E090E0892B71F080E090E0892B5E
:100C600051F00E940000811104C008950E94010605
:100C7000F0CF0C94000008953FB7F89480910202E1
:100C800090910302A0910402B091050226B5A89BA1
:100C900005C02F3F19F00196A11DB11D3FBFBA2F0E
:100CA000A92F982F8827820F911DA11DB11DBC016E
:100CB000CD0142E0660F771F881F991F4A95D1F733
:100CC0000895089585ED8093BC008091BC0084FD5B
:100CD000FCCF10922C0208954091D801262F30E0CD
:100CE000240F311D21323105DCF420912C022430F7
:100CF000C9F4FC0180E090E0861758F43091D801E7
:100D00002191DC01AA54BE4FA30FB11D2C93019673
:100D1000F3CF8091D801680F6093D80180E00895E7
:100D200081E0089582E008950895E0913501809171
:100D30003401E81730F4F0E0EA56FE4F808190E08D
:100D400008958FEF9FEF08959091350180913401C0
:100D5000981750F4E92FF0E0EA56FE4F208130E07A
:100D60009F5F9093350102C02FEF3FEFC9010895B7
:100D70008091340190E020913501821B9109089502
:100D8000CF92DF92EF92FF920F931F93CF93DF9357
:100D90007C01262F972F8A0180912D02882391F0C4
:100DA000C62FD72F6E01C40ED51ECC15DD0571F0F0
:100DB0006991D701ED91FC910190F081E02DC7017F
:100DC0000995F3CF642F822F0E946C06C801DF9132
:100DD000CF911F910F91FF90EF90DF90CF900895EA
:100DE000CF93DF931F92CDB7DEB7698320912D0299
:100DF0002223D1F020915002203240F021E030E057
:100E0000FC013383228380E090E015C080912E02A4
:100E1000E82FF0E0E15DFD4F998190838F5F809333
:100E20002E028093500205C061E0CE0101960E941F
:100E30006C0681E090E00F90DF91CF91089581E002
:100E40008093380108950E94371C1F920F920FB6AD
:100E50000F9211242F933F934F935F936F937F9340
:100E60008F939F93AF93BF93EF93FF9381E592E0AE
:100E70000E947705FF91EF91BF91AF919F918F9164
:100E80007F916F915F914F913F912F910F900FBE86
:100E90000F901F9018951F920F920FB60F9211246A
:100EA0002F938F939F93EF93FF93E0916102F091C3
:100EB00062028081E0916702F091680282FD12C0B7
:100EC000908180916A028F5F8F7320916B028217ED
:100ED00051F0E0916A02F0E0EF5AFD4F958F809358
:100EE0006A0201C08081FF91EF919F918F912F91B4
:100EF0000F900FBE0F901F90189590E0FC01EE54DC
:100F0000F64F3491FC01EE56F64F2491FC01EE5859
:100F1000F64FE491EE2309F43BC0332339F133302B
:100F200091F038F43130A9F0323001F584B58F7D7D
:100F300012C0373091F03830A1F03430B9F48091DC
:100F400080008F7D03C0809180008F778093800028
:100F50000DC084B58F7784BD09C08091B0008F77B4
:100F600003C08091B0008F7D8093B000F0E0EE0F61
:100F7000FF1FE859F64FA591B4918FB7F894EC9103
:100F8000611103C020952E2301C02E2B2C938FBFFF
:100F90000895CF93DF9390E0FC01EE56F64F249135
:100FA000FC01EE58F64F8491882361F190E0880FA0
:100FB000991FFC01E25AF64FC591D491FC01E85902
:100FC000F64FA591B491611109C09FB7F89488813B
:100FD000209582238883EC912E230BC0623061F42C
:100FE0009FB7F8943881822F809583238883EC9172
:100FF0002E2B2C939FBF06C08FB7F894E8812E2B21
:1010000028838FBFDF91CF9108951F93CF93DF93F4
:10101000182FEB0161E00E94C907209711F460E0EE
:1010200004C0CF3FD10539F461E0812FDF91CF912A
:101030001F910C947D07E12FF0E0EE54F64FE49100
:10104000E330F9F048F4E130B9F0E230A1F584B5CD
:10105000806284BDC8BD34C0E730E9F0E83019F1E2
:10106000E43049F580918000806280938000D093C5
:101070008B00C0938A0024C084B5806884BDC7BD3E
:101080001FC080918000806880938000D093890089
:10109000C093880015C08091B00080688093B00034
:1010A000C093B3000DC08091B00080628093B00007
:1010B000C093B40005C0C038D1050CF0B5CFAFCF98
:1010C000DF91CF911F9108958F929F92AF92BF921F
:1010D000CF92DF92EF92FF926B017C010E943C065F
:1010E0004B015C01C114D104E104F104F1F00E9450
:1010F0003C06DC01CB0188199909AA09BB09883E85
:101100009340A105B10570F321E0C21AD108E108AE
:10111000F10888EE880E83E0981EA11CB11CC11452
:10112000D104E104F10419F7DDCFFF90EF90DF90D7
:10113000CF90BF90AF909F908F9008951F920F9285
:101140000FB60F9211242F933F938F939F93AF93DA
:10115000BF938091FE019091FF01A0910002B09198
:1011600001023091FD0123E0230F2D3720F4019679
:10117000A11DB11D05C026E8230F0296A11DB11DBA
:101180002093FD018093FE019093FF01A093000244
:10119000B09301028091020290910302A091040297
:1011A000B09105020196A11DB11D8093020290939A
:1011B0000302A0930402B0930502BF91AF919F91E7
:1011C0008F913F912F910F900FBE0F901F90189508
:1011D0001F920F920FB60F9211242F933F934F93AC
:1011E0005F936F937F938F939F93AF93BF93EF938F
:1011F000FF93E0910401F09105010995FF91EF91B2
:10120000BF91AF919F918F917F916F915F914F911E
:101210003F912F910F900FBE0F901F9018951F9226
:101220000F920FB60F9211242F933F934F935F931A
:101230006F937F938F939F93AF93BF93EF93FF939E
:10124000E0910201F09103010995FF91EF91BF91A7
:10125000AF919F918F917F916F915F914F913F914E
:101260002F910F900FBE0F901F9018951F920F9205
:101270000FB60F9211242F933F934F935F936F9369
:101280007F938F939F93AF93BF93EF93FF93E091DF
:101290000001F09101010995FF91EF91BF91AF918C
:1012A0009F918F917F916F915F914F913F912F917E
:1012B0000F900FBE0F901F9018951F920F920FB6B0
:1012C0000F9211242F933F934F935F936F937F93CC
:1012D0008F939F93AF93BF93EF93FF938091B90048
:1012E000887F803609F49CC068F5883209F45BC0B9
:1012F00090F4803109F454C038F4882309F4F6C01E
:10130000883009F44DC0F6C0883109F44CC08032F1
:1013100009F45DC0EFC0803409F468C048F480333C
:1013200009F455C0883309F0E5C080932A02D8C07B
:10133000803509F44FC0883509F45DC0883409F060
:10134000D9C0D6C0883909F4C7C0A8F4883709F4D1
:1013500067C038F4883609F463C0803709F460C088
:10136000C9C0883809F4B8C0803909F45FC0803832
:1013700009F0C0C05BC0803B09F486C038F4803AF5
:1013800009F466C0883A09F47FC0B4C0803C09F40F
:10139000A7C0883C09F4A4C0883B09F48AC0AAC04D
:1013A0008091070210C0909129028091280298171D
:1013B00070F5E091290281E08E0F80932902F0E020
:1013C000E85FFD4F80818093BB0085EC86C08093F1
:1013D0002A028EC0E091290281E08E0F80932902BB
:1013E0008091BB00F0E0E85FFD4F8083909129027F
:1013F000809128026EC0E091290281E08E0F8093D7
:1014000029028091BB00F0E0E85FFD4F808380916E
:101410002B0281116DC081E08093060284EA61C0D5
:1014200083E080932C021092FC01CFCF8091FC01CD
:10143000803208F051C0E091FC0181E08E0F809372
:10144000FC018091BB00F0E0E452FE4F8083BDCFF1
:1014500085EC8093BC0010922C028091FC018032BC
:1014600030F4E091FC01F0E0E452FE4F1082609114
:10147000FC0170E0E091DA01F091DB018CED91E08C
:1014800009951092FC0136C084E080932C021092E2
:10149000D9011092D801E091D601F091D7010995B8
:1014A0008091D801811105C081E08093D80110920C
:1014B000B601E091D90181E08E0F8093D901F0E06F
:1014C000EA54FE4F80818093BB009091D9018091B6
:1014D000D801981708F479CF85E88093BC000AC03A
:1014E00085EC8093BC0010922C0204C010922A025A
:1014F0000E946206FF91EF91BF91AF919F918F91F2
:101500007F916F915F914F913F912F910F900FBEFF
:101510000F901F901895EF92FF920F931F93CF9308
:10152000DF9300D0CDB7DEB7142F91E090932D025A
:1015300080934F0210922E02109250028EEE92E093
:1015400029833A830E94F0062981022FE22E3A81F4
:10155000F32E8E2D801B811740F4F70161917F01DE
:101560008EEE92E00E94F006F4CF0E94B80C91E05B
:10157000811190E0892F0F900F90DF91CF911F91F3
:101580000F91FF90EF900895CF93DF931F92CDB707
:10159000DEB749839E012F5F3F4F41E00E948B0AD7
:1015A0000F90DF91CF9108952F923F924F925F92CB
:1015B0006F927F928F929F92AF92BF92CF92DF9263
:1015C000EF92FF920F931F93CF93DF93CDB7DEB7C8
:1015D00027970FB6F894DEBF0FBECDBF8F836B8306
:1015E000742F59018FB7F894C090FE01D090FF017D
:1015F000E0900002F09001028FBF3F80330C812CFD
:10160000212C9924939450E05D834C832801612C14
:10161000712C871608F0A7C090922D025F8150931D
:101620004F0210922E02109250026B818EEE92E0C9
:101630007E830E94F0060E94B80C90922D025F817A
:1016400050934F0210922E02109250027E81809190
:101650002C028111FCCF2C813D81281931092132C6
:10166000310514F020E230E0213208F020E29092BF
:101670002C0290922B028FEF80932A021092290263
:10168000820F80932802909207028091070283299B
:101690008093070280910602813071F41092060255
:1016A000809107028093BB008091BC0083FDF8CF3E
:1016B00095EC9093BC0003C0E5EEE093BC008091F4
:1016C0002C028130E1F380912902821710F42091DD
:1016D0002902A8E0B2E0E6E9F1E08E2F46E951E008
:1016E000841B821718F48D918193F7CF10923501E6
:1016F000209334019091340180913501981749F17C
:101700000115110591F4A501420D511D27FC5A95B3
:101710005A8349838EEE92E07E830E94A406E9817B
:10172000FA81808323947E81E5CF2FB7F89480914E
:10173000FE019091FF01A0910002B09101022FBF24
:101740008C199D09AE09BF0984159505A605B70535
:10175000D0F27E830E94B80C7E81872F713208F010
:1017600080E2880E56CF0115110509F12FB7F894C4
:101770008091FE019091FF01A0910002B0910102C1
:101780002FBF8C199D09AE09BF0920E030E08017FA
:101790009107A207B30758F0272F30E0822D022CC3
:1017A000000C990B8217930714F422242A94822D9B
:1017B00027960FB6F894DEBF0FBECDBFDF91CF9155
:1017C0001F910F91FF90EF90DF90CF90BF90AF905F
:1017D0009F908F907F906F905F904F903F902F9051
:1017E0000895BF92CF92DF92EF92FF920F931F93D3
:1017F000CF93DF931F92CDB7DEB7F82EE62EC42E1F
:10180000B22ED02E08EE13E09E012F5F3F4F41E035
:101810000E94D40A882321F1EC2DF0E0EB19F109A4
:10182000319621E030E002C0220F331FBA94E2F774
:10183000215031090E2E01C0220F0A94EAF78D2D96
:1018400001C0880FEA95EAF7422F40959981492314
:101850002823422B49836E2D8F2D0E94C40A01C07C
:1018600080E00F90DF91CF911F910F91FF90EF904B
:10187000DF90CF90BF900895CF92DF92EF92FF92CA
:101880000F931F93CF93DF931F92CDB7DEB7F82E40
:10189000E62ED42EC22E08EE13E09E012F5F3F4F9E
:1018A00041E00E94D40A9981CC2041F041E050E00F
:1018B00001C0440FDA94EAF7492B09C021E030E077
:1018C000A90101C0440FDA94EAF7409549234983FE
:1018D0006E2D8F2D0E94C40A0F90DF91CF911F9122
:1018E0000F91FF90EF90DF90CF90089562E370E04A
:1018F00083E00E94050862E370E084E00E9405082E
:1019000081E090E008956FEF70E083E00E940508A9
:101910006FEF70E084E00E94050861E083E00E94C0
:101920007D0761E084E00E947D0781E090E00895FA
:10193000009769F0FC0101900020E9F73197AF01B1
:10194000481B590BBC0181E592E00C94140580E022
:1019500090E00895CF93DF930E94980CEC0181E30F
:1019600091E00E94980C8C0F9D1FDF91CF910895FC
:101970002091500290914F02213208F04AC080918C
:101980002C028111FCCF32E030932C0231E03093F5
:101990002B023FEF30932A02109229022093280253
:1019A000AFE2B2E048E052E0FA013E2F341B3217BA
:1019B00018F43D913193F9CF10920702209107025C
:1019C000990F922B9093070290910602913061F447
:1019D00010920602909107029093BB009091BC0078
:1019E00093FDF8CF95EC01C095EE9093BC009091DB
:1019F0002C029230E1F390912A029F3F79F080917E
:101A00002A02803241F080912A02803331F084E052
:101A100005C081E003C082E001C083E010922E0285
:101A20001092500210922D0208950F931F93CF939E
:101A3000DF93CAE0D3E008EE13E02BE033E041E0AF
:101A40006AE388810E94D40A8981DF91CF911F9136
:101A50000F910895CF93DF93EA0191E090932D02C7
:101A600080934F0210922E02109250028EEE92E05E
:101A70000E94F00669818EEE92E00E94F0066A8173
:101A80008EEE92E00E94F0060E94B80C91E0811167
:101A900090E0892FDF91CF91089521E042E06AE63E
:101AA00080910A030C943C0C482F6EE680910A0347
:101AB0000C94C40A2F923F924F925F926F927F9242
:101AC0008F929F92AF92BF92CF92DF92EF92FF924E
:101AD0000F931F93CF93DF933C015B01342EC22FF2
:101AE000202E4F716DE680910A030E94C40A8C2F4C
:101AF0000E94540D80E190E00E94401A6C01002386
:101B000031F080E190E00E94401A582E492EE12CDD
:101B1000F12CEA14FB0408F06DC0C7014096A8162A
:101B2000B90618F4DA2DDE1901C0D0E18D2F90E04E
:101B300020E031E02C1B31092817390714F4DC2F81
:101B4000D195F301EE0DFF1D222059F0952DA52D05
:101B5000B42D8A2F891B8D1730F484918D93319683
:101B6000F8CF5E2E4F2E252D342D4D2F6FE6809110
:101B70000A030E948B0A8D2E912CC114D10429F1E5
:101B8000432D4F716DE680910A030E94C40A8C2F89
:101B90000E94540D08EE13E096014D2F6FE68091E0
:101BA0000A030E94D40AA401B601852D942D0E9437
:101BB0003C1C892B51F0C6010E94D51A222021F12C
:101BC000852D942D0E94D51A1FC0E80CF91CCD0F4D
:101BD000EA14FB0408F09DCFC11101C03394432DDA
:101BE0004F716DE680910A030E94C40A8C2F0E94F7
:101BF000540D8FCFC6010E94D51A222039F0852DB1
:101C0000942D0E94D51A02C080E001C081E0DF91CE
:101C1000CF911F910F91FF90EF90DF90CF90BF90E9
:101C2000AF909F908F907F906F905F904F903F907C
:101C30002F9008950F931F93462F08EE13E09C01F9
:101C400064E780910A030E94D40A1F910F910895BE
:101C50000F931F93CF93DF93CAE0D3E008EE13E016
:101C60002BE033E042E062E788810E94D40A898158
:101C700090E0982F88272A81822BDF91CF911F91A6
:101C80000F910895EF92FF920F931F93CF93DF93DD
:101C90001F92CDB7DEB77A0189019E012F5F3F4FBA
:101CA00041E00E94D40A882339F029812E7730E060
:101CB00035952795F70120830F90DF91CF911F91E4
:101CC0000F91FF90EF9008958F929F92AF92BF92E5
:101CD000CF92DF92EF92FF920F931F93CF93DF93F8
:101CE000CDB7DEB7A1970FB6F894DEBF0FBECDBF5C
:101CF0006C01990FEE08FF08F7FE31C0E091510228
:101D0000F09152020190F081E02D6DE281E592E0C8
:101D100009958C0122273327A9012C193D094E0969
:101D20005F0919A2CE0181967C019AE0892E912C3F
:101D3000A12CB12CCA01B901A50194010E94B916C8
:101D4000605DF70162937F01211531054105510561
:101D500089F7CF010E94980C080F191F1EC0A70118
:101D6000960119A28E010F5D1F4F8AE0C82ED12C5B
:101D7000E12CF12CCA01B901A70196010E94B91604
:101D8000605DF80162938F01211531054105510510
:101D900089F7CF010E94980C8C0181E391E00E94A9
:101DA000980C800F911FA1960FB6F894DEBF0FBE5E
:101DB000CDBFDF91CF911F910F91FF90EF90DF90FA
:101DC000CF90BF90AF909F908F900895CF93DF9367
:101DD000CDB7DEB7CC5AD1090FB6F894DEBF0FBE2F
:101DE000CDBF789484B5826084BD84B5816084BDA4
:101DF00085B5826085BD85B5816085BD80916E00A9
:101E0000816080936E0010928100809181008260D9
:101E10008093810080918100816080938100809116
:101E200080008160809380008091B1008460809305
:101E3000B1008091B00081608093B00080917A0001
:101E4000846080937A0080917A00826080937A0027
:101E500080917A00816080937A0080917A00806816
:101E600080937A001092C10061E083E00E94C9076C
:101E700061E084E00E94C90761E080E00E94C90738
:101E80006FEF70E083E00E94050861E081E00E944E
:101E9000C9076FEF70E084E00E940508E0916102DD
:101EA000F091620282E08083E0915D02F0915E0237
:101EB0001082E0915F02F091600280E180831092D5
:101EC0006902E0916502F091660286E08083E0910C
:101ED0006302F0916402808180618083E0916302FB
:101EE000F0916402808188608083E0916302F091C8
:101EF0006402808180688083E0916302F0916402D3
:101F000080818F7D80831092350110923401109270
:101F10002E021092500210922C0281E080932B022C
:101F20001092060261E081E10E947D0761E080E19C
:101F30000E947D078091B9008E7F8093B9008091C7
:101F4000B9008D7F8093B90088E48093B80085E460
:101F50008093BC008CE08093B80001E023E042E075
:101F60006BE680910A030E94F10B00E022E044E05E
:101F70006BE180910A030E94F10B22E044E06CE1E6
:101F800080910A030E94F10B20E046E06BE680910D
:101F90000A030E943C0C60E082E00E94C90721E035
:101FA00047E06BE680910A030E943C0C6EE170E012
:101FB00080E090E00E94640820E046E06BE68091BB
:101FC0000A030E943C0C40E76DE680910A030E94E0
:101FD000C40A86E00E94540D08EE13E02BE033E0C3
:101FE00041E06FE680910A030E94D40A40E06DE66A
:101FF00080910A030E94C40A9E012F5F3F4F41E077
:1020000060E080910A030E94D40A898181708093E4
:102010000B0328EE33E04BE053E060E080910A03CD
:102020000E94420E80900B0328EE33E04BE053E019
:1020300061E080910A030E94420E90900B0328EE0B
:1020400033E04BE053E062E080910A030E94420ECD
:10205000A0900B034FE765E280910A030E94C40A37
:1020600020E045E06AE680910A030E943C0C48E6C5
:1020700065E280910A030E94C40A21E041E06AE619
:1020800080910A030E943C0C64E170E080E090E0E3
:102090000E94640801E020E040E069E877E085ED17
:1020A00091E00E945A0D882309F4F9C288E090E07B
:1020B0000E94401AB82E192FE12CF12CF701EB5E8B
:1020C000FE4F4491F701EA5EFE4F2491670183E0E1
:1020D000C80ED11CF701E95EFE4FE491EE23D1F169
:1020E000EE2EF12CE330D8F0B7018B2D912FC45593
:1020F000DF4F2883CC5AD040C555DF4F4883CB5A99
:10210000D0400E946D1BB82E192FC555DF4F488156
:10211000CB5AD040C455DF4F2881CC5AD040AB2D8C
:10212000B12F80E090E08E159F0548F4F601E80F8E
:10213000F91FEB5EFE4FE491ED930196F4CF00E0C2
:10214000B7018B2D912F0E945A0DEC0CFD1C8111B3
:1021500017C010C094E0E90EF11CF601EB5EFE4FD3
:10216000E491E13039F442E368E380910A030E948C
:10217000C40A06C08B2D912F0E94D51A12E090C27E
:10218000A0ECEA16F10408F499CF8B2D912F0E9450
:10219000D51A03E023E042E06BE680910A030E9437
:1021A000F10B42E168E380910A030E94C40A44E013
:1021B00069E180910A030E94C40A01E023E045E03E
:1021C0006AE180910A030E94F10B03E023E042E000
:1021D0006AE180910A030E94F10B22E044E06BE186
:1021E00080910A030E94F10B43E060E780910A03AB
:1021F0000E94C40A40E061E780910A030E94C40A79
:1022000020E040E060E080910A030E943C0C082D31
:1022100026E046E060E080910A030E94F10B092D60
:1022200026E046E061E080910A030E94F10B0A2D4E
:1022300026E046E062E080910A030E94F10B809163
:102240000A03CB56DF4F19821882C559D040AE0120
:102250004B565F4F63E10E942A0D80910A03CD56D1
:10226000DF4F19821882C359D040AE014D565F4FDF
:1022700065E10E942A0D80910A03CF56DF4F198233
:102280001882C159D040AE014F565F4F67E10E949E
:102290002A0DE12CF12CF701EA51FF4FE491A1E85E
:1022A000B0E0AC0FBD1FAE0DB11DEC9381E08E0D03
:1022B000BFEFEB1AFB0A23E02E1568F7CD57DF4F6F
:1022C0006881C358D04070E09B012E5F3F4F90E083
:1022D0002817390704F700E0CE57DF4F2881C2588E
:1022E000D040CF57DF4F4881C158D04081E890E0BF
:1022F0008C0F9D1F03960E945A0D80E0F701EA5152
:10230000FF4FE491A1E8B0E0AC0FBD1FA80FB11DD5
:10231000EC938F5F9FEFE91AF90A843078F3CD5779
:10232000DF4F6881C358D04070E0AB014E5F5F4F14
:10233000282F30E0421753070CF700E0CE57DF4F4D
:102340002881C258D040CF57DF4F4881C158D04074
:1023500081E890E08C0F9D1F03960E945A0D0E9409
:102360004D0D0E94280E682FCE0101960E941A0E74
:1023700042E06FE180910A030E94C40A4CE961E2E5
:1023800080910A030E94C40A40E560E280910A033A
:102390000E94C40A40E062E280910A030E94C40ADB
:1023A0000E944D0D21E046E06AE680910A030E94FA
:1023B0003C0C21E047E06AE680910A030E943C0C55
:1023C00021E043E06AE680910A030E943C0C80E031
:1023D000F701EA51FF4FE491A1E8B0E0AC0FBD1F57
:1023E000A80FB11DEC938F5FAFEFEA1AFA0A8430A1
:1023F00078F3CD57DF4F6881C358D04070E0AB0110
:102400004E5F5F4F282F30E0421753070CF700E074
:10241000CE57DF4F2881C258D040CF57DF4F488179
:10242000C158D04081E890E08C0F9D1F03960E9418
:102430005A0D80E0F701EA51FF4FE491A1E8B0E0C6
:10244000AC0FBD1FA80FB11DEC938F5FBFEFEB1A50
:10245000FB0A843078F3CD57DF4F6881C358D040F2
:1024600070E0AB014E5F5F4F282F30E042175307FB
:102470000CF700E0CE57DF4F2881C258D040CF572D
:10248000DF4F4881C158D04081E890E08C0F9D1FFC
:1024900003960E945A0D80E0F701EA51FF4FE49144
:1024A000A1E8B0E0AC0FBD1FA80FB11DEC938F5F8A
:1024B0002FEFE21AF20A843078F3CD57DF4F6881AC
:1024C000C358D04070E0AB014E5F5F4F282F30E023
:1024D000421753070CF700E0CE57DF4F2881C25850
:1024E000D040CF57DF4F4881C158D04081E890E0BD
:1024F0008C0F9D1F03960E945A0D0E94280E833058
:10250000E0F3682FCE0101960E941A0E0E94150D6D
:1025100080E0F701EA51FF4FE491A1E8B0E0AC0F91
:10252000BD1FA80FB11DEC938F5F9FEFE91AF90A49
:10253000843078F3CD57DF4F3880C358D040832C98
:10254000912CA4014E5F5F4F282F30E042175307B4
:1025500004F7CE57DF4FB880C258D040CF57DF4F77
:102560002880C158D040422D4F716DE680910A03FA
:102570000E94C40A8B2D0E94540DC12CD12C612CB9
:102580007724739461E8462E512C4C0E5D1EA3E017
:102590004A0E511CC814D90498F5C60140968816F5
:1025A000990618F4A32CAC1802C040E1A42E8A2D81
:1025B00090E093012B1931092817390714F4AB2C3B
:1025C000A19492012C0D3D1D08EE13E04A2D6FE6FB
:1025D00080910A030E94D40ACA0CD11CBA0CC814F8
:1025E000D904C0F6B11001C02394422D4F716DE69D
:1025F00080910A030E94C40A8B2D0E94540DCACFF9
:102600000E94280E8330E0F3682FCE0101960E94CD
:102610001A0E0E94150DF701EA51FF4F80E09491C8
:10262000A1E8B0E0AC0FBD1FA80FB11D9C938F5F58
:10263000843010F43196F3CFCD57DF4F6881C35803
:10264000D04070E0AB014E5F5F4F282F30E0421763
:10265000530784F700E0CE57DF4F2881C258D0409F
:10266000CF57DF4F4881C158D04081E890E08C0FB0
:102670009D1F03960E945A0D20E047E06AE6809174
:102680000A030E943C0C8AE290E090930D03809331
:102690000C030E944D0D0E94150D10E001C011E0C9
:1026A00010933D010CED26E046E060E080910A03C6
:1026B0000E94F10B0CE426E046E061E080910A0301
:1026C0000E94F10B0BEA26E046E062E080910A03EB
:1026D0000E94F10B80910A032CEF36E03A832983A4
:1026E000AE014F5F5F4F6AE00E942A0D111122C0B8
:1026F00021E047E06AE680910A030E943C0C8FE1EA
:1027000097E09093050180930401809169008063B4
:1027100080936900EA9A0E94150D8093900181E0F0
:102720008093950180910C0390910D0390939201F9
:102730008093910161E08DE00E94C90708EC10E0F0
:1027400080913B0190913C01892B09F4CEC080918E
:10275000390190913A018C36910511F16CF4823671
:10276000910599F08636910509F0BBC060E080E0E4
:102770000E947D0760E00EC08237910509F45EC0BB
:102780008337910509F4A6C0ACC061E080E00E94E7
:102790007D0761E081E00E947D070E94760C9CC06D
:1027A00061E080E00E947D0760E081E00E947D079B
:1027B000109307010093060168EC70E083E00E942B
:1027C000050868EC70E084E00E9405086091400113
:1027D0007091410180914201909143010E944D18F6
:1027E0002091360130913701621B730B70933F01CA
:1027F00060933E016B01B5E0CB0ED11C7B0125E05F
:10280000E21AF1086091400170914101809142010A
:10281000909143010E944D18C616D7060CF05AC07D
:10282000609140017091410180914201909143017A
:102830000E944D186E157F052CF34CC060E080E0BF
:102840000E947D0761E081E00E947D0710930701EF
:102850000093060168EC70E083E00E94050868ECD4
:1028600070E084E00E940508609140017091410190
:1028700080914201909143010E944D1820913601B0
:1028800030913701620F731F70933F0160933E01D7
:102890006B0185E0C80ED11C7B0195E0E91AF108B7
:1028A00060914001709141018091420190914301FA
:1028B0000E944D18C616D7066CF4609140017091C5
:1028C000410180914201909143010E944D186E1583
:1028D0007F0534F30E94830C60E081E592E00E9462
:1028E000980510923C0110923B018091950188233C
:1028F00019F18091380181110BC020919301309121
:102900009401809191019091920128173907A0F0CC
:10291000109238010E94150DF82E809390010E94AC
:10292000280E9093940180939301F4FC03C08115C9
:10293000944029F40E944D0D0E94250601CFF1FE1E
:10294000FBCFE0909301F0909401C0909101D09062
:102950009201EC14FD0438F40E94280E9093940127
:1029600080939301EECF6C2D80E591E00E941A0ECA
:10297000EC18FD08F0929401E092930160905401EC
:10298000712C762C662480915501680E711CC090C4
:102990005801D12CDC2CCC2480915901C80ED11CBB
:1029A000E0905C01F12CFE2CEE2480915D01E80E9C
:1029B000F11C6091500170E0762F662780915101E3
:1029C000680F711D072E000C880B990B0E9485184B
:1029D00020E030E040E858E30E9474194B015C01AC
:1029E0006093FA027093FB028093FC029093FD02C5
:1029F000B301770C880B990B0E94851820E030E01A
:102A000040E858E30E947419C956DF4F6883798300
:102A10008A839B83C759D0406093FE027093FF0264
:102A20008093000390930103B601DD0C880B990B92
:102A30000E94851820E030E040E858E30E947419B5
:102A4000C556DF4F688379838A839B83CB59D040F7
:102A50006093020370930303809304039093050330
:102A6000B701FF0C880B990B0E94851820E030E01D
:102A700040E858E30E9474192B013C01609306035F
:102A8000709307038093080390930903A5019401B1
:102A9000C501B4010E94E216C156DF4F68837983F5
:102AA0008A839B83CF59D040A50194010E94741959
:102AB000CD55DF4F688379838A839B83C35AD04087
:102AC000C956DF4F288139814A815B81C759D0407F
:102AD000CA01B9010E94E2164B015C01C956DF4FE1
:102AE000288139814A815B81C759D0400E9474197D
:102AF0009B01AC01CD55DF4F688179818A819B8133
:102B0000C35AD0400E94E21620E030E040E85FE384
:102B10000E94E116C955DF4F688379838A839B83BE
:102B2000C75AD040C556DF4F288139814A815B8121
:102B3000CB59D040C501B4010E9474196B017C01CE
:102B4000A3019201C156DF4F688179818A819B81FF
:102B5000CF59D0400E9474199B01AC01C701B60146
:102B60000E94E116C955DF4F288139814A815B8176
:102B7000C75AD0400E947C176B017C0160934401CE
:102B8000709345018093460190934701A301920100
:102B9000C501B4010E9474194B015C01C556DF4F99
:102BA000288139814A815B81CB59D040C156DF4FA2
:102BB000688179818A819B81CF59D0400E947419A4
:102BC0009B01AC01C501B4010E94E2160E944E17A0
:102BD000DC01CB01B0588093480190934901A09348
:102BE0004A01B0934B01A3019201C301B2010E94BB
:102BF000E216A30192010E9474199B01AC01CD550C
:102C0000DF4F688179818A819B81C35AD0400E94BD
:102C1000E21620E030E040E85FE30E94E1164B015D
:102C20005C01C556DF4F288139814A815B81CB59D0
:102C3000D040CA01B9010E94E216A30192010E948C
:102C400074192B013C01C956DF4F288139814A8113
:102C50005B81C759D040C156DF4F688179818A8135
:102C60009B81CF59D0400E9474199B01AC01C301D4
:102C7000B2010E94E116A50194010E947C176093A5
:102C80004C0170934D0180934E0190934F0120E0D1
:102C900030E044E353E4C701B6010E9474192BED00
:102CA0003FE049E450E40E94DB17609340017093D9
:102CB000410180934201909343016091080181E0BA
:102CC0006827609308018DE00E947D0735CEE1E51D
:102CD000F2E01382128288EE93E0A0E0B0E08483F9
:102CE0009583A683B78325E131E03183208325ECEA
:102CF00030E03587248724EC30E03787268720ECC6
:102D000030E0318B208B21EC30E0338B228B22ECB6
:102D100030E0358B248B26EC30E0378B268B118E00
:102D2000128E138E148EEEEEF2E0138212828483E2
:102D30009583A683B78385E291E09183808388E6BB
:102D400080930A03EAEFF2E080E090E0A0E8BFE3BE
:102D500080839183A283B3831482158216821782A3
:102D60001086118612861386148615861686178697
:102D70000895A1E21A2EAA1BBB1BFD010DC0AA1FBC
:102D8000BB1FEE1FFF1FA217B307E407F50720F0D4
:102D9000A21BB30BE40BF50B661F771F881F991F4F
:102DA0001A9469F760957095809590959B01AC0198
:102DB000BD01CF010895EE0FFF1F0590F491E02DA6
:102DC00009945058BB27AA270E94F9160C9432196F
:102DD0000E94241938F00E942B1920F039F49F3FEB
:102DE00019F426F40C94E6180EF4E095E7FB0C9425
:102DF000E018E92F0E94431958F3BA1762077307C6
:102E00008407950720F079F4A6F50C9465190EF463
:102E1000E0950B2EBA2FA02D0B01B90190010C01EA
:102E2000CA01A0011124FF27591B99F0593F50F402
:102E3000503E68F11A16F040A22F232F342F44275A
:102E4000585FF3CF469537952795A795F040539552
:102E5000C9F77EF41F16BA0B620B730B840BBAF022
:102E60009150A1F0FF0FBB1F661F771F881FC2F78D
:102E70000EC0BA0F621F731F841F48F487957795A1
:102E80006795B795F7959E3F08F0B0CF9395880F5B
:102E900008F09927EE0F9795879508959F939F7750
:102EA000EEE389379E0728F4ECE7F0E00E94101962
:102EB0000CC00E94C0189058A2EA2AED3FE049ECED
:102EC0005FE30E94F9160E9432190F9007FC905898
:102ED00008950E94241960F080E891E009F49EEFC3
:102EE0000E942B1928F040E851E071F45EEF0CC00D
:102EF0000C94E6180C946519E92FE0780E944319A8
:102F000040F3092E052AB1F326173707480759075A
:102F100038F00E2E07F8E02569F0E025E0640AC0DD
:102F2000EF6307F8009407FADB01B9019D01DC01AA
:102F3000CA01AD01EF930E94F2170E9432190E945C
:102F4000AC175F91552339F02BED3FE049E450FD7C
:102F500049EC0C94E2160895DF93DD27B92FBF7773
:102F600040E85FE31616170648075B0718F4D92FE9
:102F70000E946C199F938F937F936F930E94271ADF
:102F8000E0E9F0E00E94E9180E9432192F913F9188
:102F90004F915F910E948719DD2351F09058A2EA6A
:102FA0002AED3FE049EC5FE3D0785D270E94F916F7
:102FB000DF910C9432190E94EF170C9432190E9481
:102FC0002B1958F00E94241940F029F45F3F29F092
:102FD0000C94E01851110C9466190C94E6180E9498
:102FE000431968F39923B1F3552391F3951B550BBE
:102FF000BB27AA2762177307840738F09F5F5F4FCC
:10300000220F331F441FAA1FA9F335D00E2E3AF00A
:10301000E0E832D091505040E695001CCAF72BD022
:10302000FE2F29D0660F771F881FBB1F2617370773
:103030004807AB07B0E809F0BB0B802DBF01FF27A5
:1030400093585F4F3AF09E3F510578F00C94E0188A
:103050000C9466195F3FE4F3983ED4F38695779518
:103060006795B795F7959F5FC9F7880F911D96955E
:10307000879597F90895E1E0660F771F881FBB1FBA
:10308000621773078407BA0720F0621B730B840B67
:10309000BA0BEE1F88F7E09508950E9454186894C3
:1030A000B1110C94661908950E944B1988F09F572E
:1030B00098F0B92F9927B751B0F0E1F0660F771F5C
:1030C000881F991F1AF0BA95C9F714C0B13091F052
:1030D0000E946519B1E008950C946519672F782F47
:1030E0008827B85F39F0B93FCCF386957795679517
:1030F000B395D9F73EF490958095709561957F4F83
:103100008F4F9F4F0895E89409C097FB3EF4909528
:103110008095709561957F4F8F4F9F4F9923A9F0B0
:10312000F92F96E9BB279395F6958795779567953F
:10313000B795F111F8CFFAF4BB0F11F460FF1BC083
:103140006F5F7F4F8F4F9F4F16C0882311F096E916
:1031500011C0772321F09EE8872F762F05C06623C4
:1031600071F096E8862F70E060E02AF09A95660F7D
:10317000771F881FDAF7880F9695879597F9089536
:10318000DF93CF931F930F938B01EC01EDEBF0E0F6
:103190000E94E9180E9432199801AE018B01EC01DE
:1031A00060E070E080E89FE30E94E1160E94E7196A
:1031B0009801AE010F911F91CF91DF910C94871967
:1031C00097F99F6780E870E060E008959FEF80ECDA
:1031D0000895DF93CF931F930F93FF92EF92DF92A7
:1031E0007B018C01689406C0DA2EEF010E948719DA
:1031F000FE01E894A5912591359145915591A6F34D
:10320000EF010E94F916FE019701A801DA9469F70F
:10321000DF90EF90FF900F911F91CF91DF91089574
:103220009F938F937F936F93FF93EF939B01AC01D9
:103230000E947419EF91FF910E94E9182F913F911C
:103240004F915F910C94741900240A941616170676
:1032500018060906089500240A9412161306140687
:1032600005060895092E0394000C11F4882352F0EA
:10327000BB0F40F4BF2B11F460FF04C06F5F7F4FA2
:103280008F4F9F4F089557FD9058440F551F59F089
:103290005F3F71F04795880F97FB991F61F09F3F43
:1032A00079F087950895121613061406551FF2CF6C
:1032B0004695F1DF08C0161617061806991FF1CFBC
:1032C00086957105610508940895E894BB276627E3
:1032D0007727CB0197F908959B01AC0160E070E07E
:1032E00080E89FE30C94DB170E9487190C94321935
:1032F0000E94241938F00E942B1920F0952311F018
:103300000C94E0180C94E61811240C9466190E9491
:10331000431970F3959FC1F3950F50E0551F629FBD
:10332000F001729FBB27F00DB11D639FAA27F00D1E
:10333000B11DAA1F649F6627B00DA11D661F829F45
:103340002227B00DA11D621F739FB00DA11D621F2A
:10335000839FA00D611D221F749F3327A00D611D47
:10336000231F849F600D211D822F762F6A2F112429
:103370009F5750409AF0F1F088234AF0EE0FFF1F5C
:10338000BB1F661F771F881F91505040A9F79E3FB3
:10339000510580F00C94E0180C9466195F3FE4F33B
:1033A000983ED4F3869577956795B795F795E79509
:1033B0009F5FC1F7FE2B880F911D9695879597F912
:1033C000089519F416F40C94E6180C942B1A0E9424
:1033D0004B19B8F39923C9F3B6F39F57550B87FFE1
:1033E0000E94391A0024A0E640EA900180585695C0
:1033F000979528F4805C660F771F881F20F02617AA
:103400003707480730F4621B730B840B20293129DE
:103410004A2BA69517940794202531254A2758F75B
:10342000660F771F881F20F026173707480730F4EC
:10343000620B730B840B200D311D411DA09581F78C
:10344000B901842F9158880F9695879508959B010F
:10345000AC010C9474199F3F31F0915020F4879582
:1034600077956795B795880F911D9695879597F9EC
:10347000089591505040660F771F881FD2F7089526
:10348000CF93DF938230910510F482E090E0E091D9
:103490001F03F091200320E030E0C0E0D0E030973F
:1034A00011F14081518148175907C0F04817590759
:1034B00061F482819381209719F09B838A832BC0CA
:1034C0009093200380931F0326C02115310519F026
:1034D0004217530718F49A01BE01DF01EF01028081
:1034E000F381E02DDCCF2115310509F1281B390BC3
:1034F0002430310590F412968D919C9113976115AB
:10350000710521F0FB019383828304C09093200313
:1035100080931F03FD01329644C0FD01E20FF31FAB
:1035200081939193225031092D933C933AC020917D
:103530001D0330911E03232B41F420910B01309188
:103540000C0130931E0320931D032091090130913B
:103550000A012115310541F42DB73EB740910D0107
:1035600050910E01241B350BE0911D03F0911E03B9
:10357000E217F307A0F42E1B3F0B2817390778F04A
:10358000AC014E5F5F4F2417350748F04E0F5F1FA9
:1035900050931E0340931D038193919302C0E0E07A
:1035A000F0E0CF01DF91CF9108950F931F93CF9358
:1035B000DF93009709F48CC0FC01329713821282CA
:1035C00000911F03109120030115110581F4208142
:1035D0003181820F931F20911D0330911E03281704
:1035E000390779F5F0931E03E0931D0371C0D801EC
:1035F00040E050E0AE17BF0750F412962D913C9179
:103600001397AD012115310509F1D901F3CF9D01C2
:10361000DA013383228360817181860F971F8217BD
:10362000930769F4EC0128813981260F371F2E5F3B
:103630003F4F318320838A819B8193838283452BF3
:1036400029F4F0932003E0931F0342C01396FC93E8
:10365000EE931297ED01499159919E01240F351F68
:10366000E217F30771F480819181840F951F029610
:1036700011969C938E938281938113969C938E9343
:103680001297E0E0F0E0D80112968D919C9113978B
:10369000009719F0F8018C01F6CF8D919C9198015B
:1036A0002E5F3F4F820F931F20911D0330911E0309
:1036B0002817390769F4309729F4109220031092E3
:1036C0001F0302C01382128210931E0300931D0376
:1036D000DF91CF911F910F910895A0E0B0E0E3E753
:1036E000FBE10C94561CEC01009721F4CB010E94E5
:1036F000401AB8C0FC01E60FF71F9C0122503109A7
:10370000E217F30708F4ACC0D9010D911C91119791
:1037100006171707B0F00530110508F49FC0C8015F
:1037200004978617970708F499C002501109061BE1
:10373000170B019311936D937C93CF010E94D51ABF
:103740008DC05B01A01AB10A4C01800E911EA091A0
:103750001F03B091200340E050E0E12CF12C1097C2
:1037600009F44AC0A815B905D1F56D907C90119760
:10377000630182E0C80ED11CCA14DB0480F1A301EE
:103780004A195B096A0182E0C80ED11C1296BC90EE
:1037900012971396AC91B5E0CB16D10440F0B282EB
:1037A000A38351834083D9016D937C930AC00E5F3C
:1037B0001F4FC301800F911FF90191838083EB2D6F
:1037C000FA2FE114F10431F0D7011396FC93EE9334
:1037D000129744C0F0932003E0931F033FC08D91E4
:1037E0009C9111974817590708F4AC017D01129676
:1037F0000D90BC91A02DB3CF80911D0390911E031D
:1038000088159905E1F446175707C8F48091090116
:1038100090910A01009741F48DB79EB740910D0138
:1038200050910E01841B950BE817F907C8F4F0932B
:103830001E03E0931D03F901718360830FC0CB0168
:103840000E94401A7C01009759F0A801BE010E9415
:10385000491CCE010E94D51AC70104C0CE0102C086
:1038600080E090E0CDB7DEB7EEE00C94721C81E012
:1038700090E0F8940C94891CFB01DC0104C08D914C
:103880000190801921F441505040C8F7881B990BD2
:103890000895FB01DC0102C001900D92415050409F
:1038A000D8F708952F923F924F925F926F927F9236
:1038B0008F929F92AF92BF92CF92DF92EF92FF9240
:1038C0000F931F93CF93DF93CDB7DEB7CA1BDB0BEC
:1038D0000FB6F894DEBF0FBECDBF09942A88398891
:1038E00048885F846E847D848C849B84AA84B98498
:1038F000C884DF80EE80FD800C811B81AA81B981A4
:10390000CE0FD11D0FB6F894DEBF0FBECDBFED01B7
:063910000895F894FFCFBA
:10391600610661066106FF0001000021038000E8E0
:1039260003000000009805140561053F055305DFF7
:103936000500000000F006C006B806A40695069429
:04394600060D0A0060
:10FC00001F92CDB7DEB7112484B714BE81FFD9D0BF
:10FC100085E08093810082E08093C00088E180933A
:10FC2000C10086E08093C20080E18093C4008EE032
:10FC3000B3D0209A26E080E39CEF31E090938500DA
:10FC40008093840036BBB09BFECF189AA8952150B4
:10FC5000A9F7812C912CEE24E39495E0D92E21E193
:10FC6000C22E33E0F32E8CD0813471F489D0898395
:10FC700099D08981823809F41EC0813811F485E059
:10FC800001C083E076D072C0823411F484E103C0F5
:10FC9000853419F485E08ED069C0853541F470D083
:10FCA000882E6ED0912C982A880C991C5EC08635BF
:10FCB00021F484E07FD080E0E5CF843609F03AC0BB
:10FCC0005FD05ED0B82E5CD0811480EE980618F418
:10FCD000F401F7BEE89500E011E052D0F8018193FD
:10FCE0008F01BE12FACF8114F0EE9F0618F0F401D6
:10FCF000F7BEE89557D007B600FCFDCFF401A0E0B1
:10FD0000B1E08C9111962C91119790E0922B129664
:10FD10000C01E7BEE89511243296A11582E0B807E0
:10FD200081F7F401D7BEE89507B600FCFDCFC7BE4A
:10FD3000E8951CC0843761F423D022D0182F20D03E
:10FD400031D0F40185914F0114D01150D1F70EC07C
:10FD5000853739F427D08EE10CD086E90AD08AE0C5
:10FD600091CF813511F488E017D01CD080E101D00B
:10FD70007ACF9091C00095FFFCCF8093C600089584
:10FD80008091C00087FFFCCF8091C00084FD01C03E
:10FD9000A8958091C6000895E0E6F0E098E1908390
:10FDA00080830895EDDF803219F088E0F5DFFFCF22
:10FDB00084E1DFCFCF93C82FE3DFC150E9F7CF91C4
:0EFDC000F1CF282E80E0E8DFEE27FF27099420
:02FFFE000005FC
:040000030000FC00FD
:00000001FF
